:020000040800F2
:10000000E0080020193200081131000813310008FF
:1000100015310008173100081931000800000000F0
:100020000000000000000000000000001B3100087C
:100030001D310008000000001F31000821310008B8
:100040003132000835320008393200083D320008EC
:100050004132000845320008493200084D3200089C
:100060005132000855320008593200085D3200084C
:100070006132000865320008693200086D320008FC
:100080007132000875320008793200087D320008AC
:100090008132000885320008893200088D3200085C
:1000A0009132000895320008993200089D3200080C
:1000B000A1320008A532000825310008A932000845
:1000C000AD320008B1320008B5320008B93200087C
:1000D000BD320008C1320008C5320008C93200082C
:1000E000CD320008D1320008D5320008D9320008DC
:1000F000DD320008E1320008E5320008E93200088C
:10010000ED320008F1320008F5320008F93200083B
:10011000FD320008013300080533000809330008E8
:100120000D3300082B310008113300081533000887
:100130001933000800000000000000001D33000813
:100140002133000825330008293300082D33000827
:100150003133000835330008393300083D330008D7
:100160004133000845330008493300084D33000887
:1001700051330008553300085933000800000000CF
:10018000000000005D3300080000000000000000D7
:100190006133000800000000000000006533000823
:1001A00000000000000000000000000069330008AB
:1001B0006D33000871330008753300087933000887
:1001C0007D33000810B5DFF8304B2DED028BD4F8ED
:1001D0004421B4F83C110020C4F850039FED748B07
:1001E00013685868091A491E84F8411218E004F58A
:1001F0000A7123180A5C83F85423401C94F82C12CB
:100200008842F4DB94F82C220A2304F5557104F596
:10021000887000F0EBFD94F84002401C84F8400226
:1002200094F8400294F84112884200F0B98094F8A2
:10023000420218B1022821D016D375E094F840028A
:1002400004F514710A5CFE2A0AD194F84402401C99
:1002500084F8440294F84402042865D101210AE09C
:10026000002084F844025FE000F0A6F894F844020D
:10027000082859D1022184F8421255E000F09CF878
:1002800004F5147294F8400294F84512105C411879
:1002900084F8451294F8440294F81412884232D13A
:1002A00094F8450294F81712884204BF94F8160295
:1002B000022832D1D4F81802C4F85804D4F81C2209
:1002C000C4F85C24D4F8180200F048FF00F06BF882
:1002D000C4E90001D4F81C0200F040FF00F063F80C
:1002E000C4E91601D4F8200200F038FF00F05BF8F2
:1002F000C4E92201D4F8240200F030FF00F053F8E2
:10030000C4E9380109E094F8140294F844128842D0
:1003100003D394F84402182806D9002184F8451222
:1003200084F8421284F84412D4F854043228FFF6B8
:1003300072AF0021C4F85414182194F8430284F8D1
:100340002D0284F82C12032084F82E02002184F858
:100350002F12D4E9042351EC180B00F02DFF01F00B
:1003600001F8C4F83002D4E9102351EC180B00F066
:1003700023FF00F0F7FFC4F834026420C4F8380209
:10038000C4F83C02082004F50A71095C94F82F2295
:10039000401C8918182884F82F12F4D300202DE768
:1003A000BDEC028B10BD0022DFF8503900F0F6BF23
:1003B0000000000000408F4094F84402411C84F883
:1003C000441204F5147294F84012535C04F504725C
:1003D00013547047F8B5DFF8204904F5E8718842F6
:1003E0002DED088B40F02982B4F84A02642290FB7C
:1003F000F2F2642101FB120000289FED838B40F094
:10040000C7800025A4F84A52D4E900010022002345
:1004100001F0E8F838BF94ED009B94ED000BD4E9AF
:10042000042300F041FAC4E9080194ED080BD4E973
:10043000022300F039FAC4E90A01DFF8C428DFF822
:10044000C438D4E9080101F0E7F89FED719B04D8A6
:10045000D4E9082351EC190B08E0D4E9080100F0B5
:1004600017FA07D2D4E9082351EC180B01F0EEF883
:10047000C4E9080194ED080B94ED0C1B94ED0AAB54
:1004800000F020FA06460F46D4E90E0153EC1A2B71
:1004900000F092FE00F0E0F9C4E92001DFF86828DE
:1004A000DFF86838D4E9200101F0B6F804D8DFF8A5
:1004B0006008C4E9200306E0D4E9200100F0E2F975
:1004C00038BFC4E92023D4E922010022002301F02F
:1004D00089F838BF94ED220B94ED220BD4E9262342
:1004E00000F0E2F9C4E92A0194ED2A0BD4E92423AF
:1004F00000F0DAF9C4E92C01DFF80428DFF8043849
:10050000D4E92A0101F088F804D8D4E92A2351EC6F
:10051000190B08E0D4E92A0100F0BAF907D2D4E9AE
:100520002A2351EC180B01F091F8C4E92A0194ED4B
:100530002A0B94ED2E1B94ED2C9B00F0C3F906467C
:100540000F46D4E9300153EC192B00F035FE00F0D2
:1005500083F9C4E94201DFF8B027DFF8B037D4E906
:10056000420101F059F804D8DFF8A407C4E94203B6
:1005700006E0D4E9420100F085F938BFC4E942231E
:1005800094ED080B84ED020B94ED2A1B84ED241BE3
:100590000A22B4F84A0290FBF2F20A2101FB12008F
:1005A000002840F03581DFF86C07D0F80014A4F87B
:1005B0004C120568C4F86054D4F8600401F076F970
:1005C0000022DFF8543700F0E9FE00F077F9C4E9C3
:1005D0000401B4F84C0201F069F90022DFF83C375D
:1005E00000F0DCFE00F06AF9C4E9260194ED160B78
:1005F000D4E9202351EC100B00F0F4FF0CD294ED61
:10060000160B84ED200B14E07A008BFCFA211940C4
:100610007A008BFCFA2119C094ED200BD4E9162343
:1006200000F03CF905D2D4E9160181F00041C4E99B
:10063000200194ED200B84ED120B9FEDA88B94ED1F
:10064000040BD4E9062300F02FF900F031F9C4E9D6
:10065000100194ED040B84ED060B9FEDA2AB94ED1D
:10066000120BD4E9102300F01FF9C4E9140194ED32
:10067000140B94ED1A1B94ED189B00F023F9064619
:100680000F46D4E91C0153EC192B00F095FD00F046
:1006900015F900F0E1F8C4E91E0194ED140BD4E95A
:1006A000182351EC100B00F0D1FFC4E91801DFF85A
:1006B0007026DFF87036D4E91E0100F0ADFF9FED23
:1006C0008B9B0ED894ED1E0B00F0C0F800F000F9E3
:1006D00000F0CCF8C4E91801DFF84C06DFF8441646
:1006E00012E0D4E91E0100F0C7F80FD294ED1E0B02
:1006F00000F0A6F800F0ECF800F0B8F8C4E9180132
:10070000DFF82406DFF82416C4E91E0194ED380B47
:10071000D4E9422351EC100B00F064FF04D294EDB5
:10072000380B84ED420B0CE094ED420BD4E93823F6
:1007300000F0B4F805D2D4E9380181F00041C4E9F1
:10074000420194ED420B84ED340B94ED260BD4E979
:10075000282300F0A9F800F0ABF8C4E9320194EDC9
:10076000260B84ED280B94ED340BD4E9322300F0F2
:100770009BF8C4E9360194ED360B94ED3C1B94EDE7
:100780003ABB00F09FF806460F46D4E93E0153EC11
:100790001B2B00F011FD00F091F800F05DF8C4E9AA
:1007A000400194ED360BD4E93A2351EC100B00F0E4
:1007B0004DFFC4E93A01DFF86825DFF86835D4E970
:1007C000400100F029FF0ED894ED400B00F03EF8F8
:1007D00000F07EF800F044F8C4E93A01DFF848057B
:1007E000DFF8401512E0D4E9400100F045F80FD2DF
:1007F00094ED400B00F024F800F06AF800F030F8B7
:10080000C4E93A01DFF82005DFF82015C4E940010A
:10081000D4F85424521CC4F854240022B4F84A02D8
:10082000401CA4F84A024FF48071BDEC088BDFF83D
:100830000005BDE8F84001F019B9BDEC088BF1BD29
:1008400053EC102B51EC190B00F000BF53EC102BA4
:1008500051EC1A0B00F0FABE32463B4600F0F6BEF1
:1008600002460B46D4E93A0100F0AEBF02460B4601
:10087000D4E9180100F0A8BFDFF8AC24DFF8AC34ED
:1008800000F0B0BEDFF88824DFF8A83400F0AABE7C
:10089000DFF8A424DFF8A43400F0A4BE51EC100B60
:1008A00083F0004300F09EBE51EC100B00F08CBFB3
:1008B000DFF88C24DFF88C3400F070BD53EC182B7B
:1008C00000F07ABC53EC102B51EC110B00F074BC0F
:1008D000DFF87424DFF8743400F060BDFCA9F1D2B5
:1008E0004D62403F9A9999999999F9BF9A99999926
:1008F0009999F93F2DE9F841DFF8FC43DFF850649E
:10090000DFF82C74DFF84C8401208DB0C4F8680443
:1009100040F2E2414FF08045A4F84812DFF8380475
:10092000686201F0BBF8FE2084F82B0284F82A02EA
:1009300084F8290284F8280200F095F900F018FAEA
:1009400000200090316841F00401316000213068DE
:1009500000F00400009000980091326842F080029C
:100960003260306800F0800000900098009132689A
:1009700042F001023260306800F0010000900098FF
:1009800000914FF47261326842F00202326000223C
:10099000306800F002000090009800F04FF900224B
:1009A0004FF4E06100F045F94FF40050EB4901903D
:1009B00002910022039201A9E94800F085FF4FF45B
:1009C000726100F03EF9384600F07EFF4FF4E061BE
:1009D00000F037F9404600F077FF00200090002239
:1009E000316841F4800131600021306800F48000FA
:1009F00000900098392001F085F8392001F09FF827
:100A0000D848C4F810014FF4E131C4F814110020A3
:100A1000C4F81801C4F81C01C4F820010C21C4F862
:100A20002801C4F82C01C4F8241104F5887000F0E2
:100A3000A5F900F013F900F00CF905F5806000212C
:100A4000C4F89001C4F8941100204FF6FF71C4F867
:100A50009801C4F89C11C4F8A00100210120C4F839
:100A6000A8110290039104900591069107910890B6
:100A700009910A9104F5C87002A901F0EEF800216D
:100A80000091019104F5C870694601F05FFC00F027
:100A9000E5F800F0DEF80020C4F8540100214FF022
:100AA000FF30C4F85811C4F85C01C4F8601100208C
:100AB0000121C4F868010291039004910590069009
:100AC0000790089109900A90C4F8505102A904F5C2
:100AD000A87001F0C2F800210091019104F5A870FE
:100AE000694601F033FC1022002109A801F086FCC0
:100AF00000F0AFF81C2200F0B2F805F50060C4F871
:100B0000D0010121C4F8D4110020C4F8D80140F666
:100B1000C901C4F8E001C4F8E801C4F8DC1104F527
:100B2000E87001F037F84FF48050099009A904F5F6
:100B3000E87001F01CFA04F5E87001F064F8002197
:100B40000091019104F5E870694601F0FFFB602116
:100B50000291002203920492069200F065F80422AA
:100B600000F062F804F5E87001F0CCFC4FF48072FC
:100B700004F5147104F5887000F09AF904F5E87032
:100B800001F015F8002104F5E87001F049F80021A2
:100B900004F5E87001F0A6FB042104F5E87001F00B
:100BA0003FF8042104F5E87001F09CFB3C2104F5BA
:100BB000A87001F098F83C2104F5C87001F093F892
:100BC00000224FF4807100F039F8012200F034F86F
:100BD00001224FF4806100F031F801224FF40061EE
:100BE00000F02CF800224FF4807100F022F800226F
:100BF0004FF4007100F01DF800224FF4806100F006
:100C000018F8FFF7DFFAD4F86404002854BF012273
:100C1000002200F011F8B4F84602C5F83408B4F820
:100C20004812C5F83818ECE702A904F5E87001F09D
:100C300023B9404600F01ABF4FF40071384600F067
:100C400015BF01910122002103910491029201A993
:100C5000704708220021684601F0D0BB2422002101
:100C600002A801F0CBBB00B593B03422002106A846
:100C700001F0C4FB00F07CF80020009001233A480A
:100C8000016841F0805101600021006800F080504F
:100C90000090009835480091026842F4404202609A
:100CA0000222006800F44040009006A800990692D5
:100CB00010210A910C92002108220D910E92B4216C
:100CC000022209930F9110921192129201F0EEFC00
:100CD00001F068FE02210291002203920F204FF4DE
:100CE000A051019004914FF480520592052101A872
:100CF00001F094FE13B000BD0000002000408F40C2
:100D00007B008BFCFA21094096D4096822DC304034
:100D100095D409682400004000000A410000EA4020
:100D20009B9999999999F93F9A9999999999F9BFA4
:100D30000000024022DC30C07A008BFCFA2109C09E
:100D4000FCA9F1D24D62403F462575029A08044045
:100D50003038024000040240F04902000000211037
:100D6000000802400014014040380240007000407A
:100D70001422002101A801F041BB704710B5040006
:100D800001D1012010BD94F8390008B900F01EF817
:100D900000F011F800F020F8FFE741612068C16819
:100DA00041F40051C1600020E063202184F8391033
:100DB00084F83A1010BD242084F839002068C168F6
:100DC00021F40051C160204600F054B9002184F89C
:100DD0003810204601F0BFBB2068016921F4904122
:100DE00001612068416921F02A0170472DE9FC4129
:100DF00005460C4695F83900202817461E4643D173
:100E00000CB1380001D101203FE095F838000128ED
:100E10003AD000F042F8212185F8391001F0A0FE07
:100E20008046AF84EF84002085F8380003E028680E
:100E300014F8011B4160E88CC0B1E88C411EE984C4
:100E400000F025F80DD100F02EF8B0B920882968FF
:100E5000C0F3080048602869002814BF641CA41C63
:100E6000E9E700F020F80028E1D006E000964346CC
:100E70000022402100F019F808B1032005E02020ED
:100E800085F83900002000E00220BDE8F6814346E5
:100E9000A8680096B0F5805F7047012185F838108A
:100EA0000020E863704700228021284600F098B8AF
:100EB00038B50446134694F83A00202842D109B1C7
:100EC000180001D1012032BD94F83800012839D032
:100ED000012084F83800A162A3850020E06322226B
:100EE00084F83A200FF26900626BD063626B0FF2F4
:100EF00099001064626B0FF29900D0640020656B5A
:100F000028650A462068011D606B01F0A9FE0021DA
:100F100000912268136800932068416800910021C5
:100F2000009884F838102268D06840F48070D0604F
:100F30002068416941F0010141612068416941F047
:100F4000400101E0022032BD4161002032BD0000BD
:100F5000816B00680268D30513D40020C885086837
:100F6000C26822F48072C260086842695208520066
:100F700042610868426922F040024261202081F803
:100F80003A00084601F0ACBF806B01F0AABF000038
:100F900010B5846B20684169080658BF94F8391071
:100FA00008D594F83900212804D10021E184204695
:100FB00000F049F82168486994F83A10222906D1CE
:100FC000400604D50021E185204600F045F8E06B9D
:100FD00040F01000E0632046BDE8104001F082BF01
:100FE0002DE9F041069C05460E4690461F462868AE
:100FF00001683140B1420CBF01200020404518D1AA
:1010000014F1010FF3D024B101F0AAFDC01B8442FA
:10101000EDD22868C16821F4D07100F00DF82020CD
:1010200085F8390085F83A00002085F8380003205B
:1010300000E00020BDE8F081C160286841694908EE
:101040004900416170470168CA6822F0C002CA6065
:10105000202180F8391070470168CA6822F4907224
:10106000CA6001684A69520852004A61202180F82A
:101070003A107047D0B50646192432681169F068F5
:1010800021F44051014311616FF06307D3682D488B
:10109000B168034030690B4371690343F0690B4346
:1010A0000343D3605169B06921F440710143516138
:1010B000F36925482549B3F5004F1FD18A4218BF6F
:1010C000824202D101F035FD01E001F02AFD024625
:1010D000A4FB02017268D30F520001F005FF00F07B
:1010E00037F8FF0032376420B7FBF0F0420002F41B
:1010F000F87202EB011200F007001DE08A4218BFEF
:10110000824202D101F015FD01E001F00AFD024624
:10111000A4FB02017268930F920001F0E5FE00F05B
:1011200017F83F0132376420B7FBF0F000F0F0020F
:1011300002EB011200F00F00316880188860D0BD0A
:1011400000000000F369FFFF00140140001001409F
:101150006421B0FBF1F107FB0107704710F000417B
:1011600060B148BF4042B0FA80F29040D21CC2F554
:10117000846241EA025202EBD0214005704730B54B
:10118000016884684218416802EB5103C90703D51E
:101190004C4401E0491C08D19A4218BF12F9011BC6
:1011A00001D10C3030BD12F8015B002904F8015B5D
:1011B000F0D4491EF7D5EFE730B540F2FF7C1CEACA
:1011C00011541DBF1CEA1355644565453FE0641981
:1011D00081EA030C6FF35F530CF0004C43F480136F
:1011E000C90241F0004141EA505EC5021100A5FB71
:1011F000020200284FF00000EEFB01204FF000013A
:10120000E3FB052118BF42F00102401800214941CB
:10121000E3FB0E01A4F580640D0302D29218404155
:10122000494154F1010470DD450872F1004250F16A
:10123000000051EB0451A1F5801102D441EA0C01E8
:1012400030BD40F2FF7E4CEA0E51002030BD0CEA6A
:101250001355644518BF654581EA030C0CF0004C3A
:1012600041D050EA410E1CBF52EA430E02E06146F3
:10127000002030BD24422C441BD15FEA050EF6D07D
:10128000090302BF01460020AEF1140EB1FA81F548
:10129000AEEB050401FA05FE0C35C5F1200100FA9C
:1012A00005F5C8404EEA000E6FF35F5343F4801318
:1012B0009CE733F00043B3FA83F504BFB2FA82FE31
:1012C00075440B3D641BB5F1200E2FBF02FA0EF3DF
:1012D000AB40C5F1200E22FA0EFE38BF43EA0E03E2
:1012E000AA40641C7CE750EA410E14BF52EA430E48
:1012F0006FF000014FF4001515EB430F8EBF194638
:1013000015EB410F9DE7B4D830BDD4F10104B4F121
:1013100020050FDAC4F12005520828BF42F001026F
:1013200010FA05FE01FA05F57244E2BFE0402843D9
:10133000E1400FE0352C9ADCC5F1200452EA40026E
:1013400020FA05F218BF42F0010231FA05F0A1407F
:101350000A43002172F1004250F1000051EB0C01F0
:1013600030BD0000C1F30A5340F21E42D31A0CDD17
:10137000CA0283F3070342EA505242F00042DA40C5
:1013800002EBE17282EAE17070476FEAE17203F208
:10139000E13008B182F0004070470000F0B540F243
:1013A000FF7581EA030C0CF0004C15EA11541DBFC7
:1013B00015EA1357AC42AF42E5E0BC41C1F313015B
:1013C000C3F31303801A994143F4801304D2641EBB
:1013D0000018494180185941C90241EA5051B1FBF6
:1013E000F3F603FB1611A2FB0675D7EBC020A9414B
:1013F00002D2761E80185941C90241EA5051B1FB10
:10140000F3FE03FB1E11A2FB0E75D7EBC020A94112
:1014100003D2AEF1010E80185941890241EA905180
:10142000760546EA8E2EB1FBF3F603FB1611A2FBFE
:101430000675D7EB8020A94102D2761E801859414B
:10144000C90241EA50514EEA060EB1FBF3F603FB26
:101450001611A2FB0675D7EBC020A94102D2761E59
:1014600080185941C90241EA5051B1FBF3F703FB1F
:101470001711A2FB0735D3EBC020A94167F1000784
:101480000CBF004247F0010766F3D5274FEA1E3133
:10149000B80814F5806412DDBD0775F1004250EB09
:1014A0000E5051EB045111F5801F5CBF41EA0C0155
:1014B000F0BD4CF07F6141F0E0410020F0BDBD0780
:1014C0006D0840EA0E5041F48011D4F10104B4F1EA
:1014D00020060ADAC4F120060200E04001FA06F311
:1014E000E1401843B24015430EE0342C13DCC6F142
:1014F000200445EA40056D0820FA06F2154321FA5A
:1015000006F0A1400D43002175F1004250F10000AA
:1015100051EB0C01F0BD00205FEA0C01F0BDCFB92A
:1015200092185B41B3FA83F704BFB2FA82F6BF198F
:101530000B3FB7F120062FBF02FA06F3BB40C7F1FD
:10154000200622FA06F638BF3343BA401CB1E4192C
:10155000641E33E77F4231F00041B1FA81F404BFE9
:10156000B0FA80F6A4190B3CB4F120062FBF00FAA4
:1015700006F1A140C4F1200620FA06F638BF314337
:10158000A0403C1B1AE7AC421ABF05EA1357AF4212
:1015900012E050EA41061CBF52EA4306BFE750EA98
:1015A0004107304661461CBF41EA0551F0BD52EA91
:1015B000430C08BFC143F0BD00204FF4001616EBEA
:1015C000410F98BF16EB430F08BF16EB410F24BF26
:1015D000C14305E016EB430F0CBF61464CEA0551D1
:1015E000F0BD000041EA030C50EA4C0C52EA0C0C2E
:1015F0004FF4001C09D307D01CEB410F9CBF1CEB20
:10160000430F8B4208BF824270471CEB430FFBD84D
:10161000994208BF9042704741EA030C50EA4C0CD3
:1016200052EA0C0C4FF4001C09D307D01CEB410FFD
:101630009CBF1CEB430F994208BF904270471CEBC4
:10164000410FFBD88B4208BF8242704770B491EAC9
:10165000030F4FF0004540F1BF806B40841A71EBDF
:10166000030604D26E40001BB141121973414FF4BE
:10167000001C1CEB410F34BF7CEB430683E00C0DD8
:10168000A4EB1356362E00F37C80012E45EAC323CB
:1016900041DC43EA525312BFD20292025B08240596
:1016A00045EAC12141EA5051D2EBC020994125D4ED
:1016B00007D1B0FA80F610FA06F162D00020203689
:1016C00008E0B1FA81F6B140C6F1200220FA02F238
:1016D0001143B0404FEAF474B4EB465434F00106C1
:1016E0004FEA74040AD8D6F50016760D04F00044CB
:1016F000F04061FA06F25040F1404840C00A40EA2A
:10170000415021F0004128BF5FEA500550F1000030
:1017100044EBD12135E0DB0A45EAC121C90AB6F123
:1017200020050EDD42EA0242120CC5F1200603FA42
:1017300006F6EB4042EA06056D42984161F1000170
:101740000DE062FA06F5F240554063FA06FC82EAC3
:101750000C02F3405A406D42904161EB030111F4D9
:10176000801F05D1641E620502D06D0040414941D1
:1017700021F48011430875F1004350F1000041EB62
:10178000045170BC70471CEB410F15D223F000438D
:1017900052EA43060BD04FEA4C0CBCEB410F04D885
:1017A0000C0D661E342EB7DDEBE7801A994150EA26
:1017B000410608BF0021E4E708BF1CEB430F28BF28
:1017C0006FF00001DDE7000070B491EA030F4FF005
:1017D00000457FF543AF6B40841A71EB030603D2DB
:1017E000001BB141121973414FF4001C1CEB410F57
:1017F00034BF7CEB430442E00C0DA4EB1356352EB2
:101800004FDC45EAC323DB0A45EAC121C912B6F120
:1018100020050DDD63FA05F6EB4086EA030512426A
:1018200018BF45F00105C01851F100010CD213E0BA
:1018300062FA06F5F2405540F3415A40B340F34096
:101840005A408018594107D349085FEA30005FEADF
:10185000350528BF45F0010501F58011420875F1F5
:10186000004250F1000041EB04514E0016F5001FFC
:1018700070BC38BF70470020090D090570471CEB8C
:10188000410F10D252EA43060BD0BCEB410F05D8F2
:101890000C0DAB43661E342EB6DD02E0AB43801860
:1018A000594170BC704770BC7047000050B1B0FA2D
:1018B00080F18840C91CC1F58461090501EBD02184
:1018C00040057047014670472DE9F84F0D46002648
:1018D0006849694A0F23044601202F68B04000EA96
:1018E0000708804540F0BC804FEA460C032707FA02
:1018F0000CF76FEA070E6F68012F18BF022F03D095
:10190000112F18BF122F12D1A768D5F80C900EEA2C
:10191000070709FA0CF949EA0707A760676827EA89
:1019200000006F68C7F30017B74038436060E06895
:10193000AF680EEA000007FA0CF73843E060B00029
:101940006F68022F18BF122F12D1F70804EB870718
:1019500000F01C09D7F820A003FA09FB2AEA0B0AB9
:10196000D5F810B00BFA09F949EA0A09C7F820902E
:1019700027680EEA070E2F7907F0030707FA0CF71E
:1019800047EA0E0727606F68FF0069D500270097B8
:101990004FEA960C176847F48047176000F00C0078
:1019A000176807F48047009703FA00FE009F334F43
:1019B00057F82C7027EA0E0E314FBC4208BF0027A3
:1019C0001DD0304FBC4208BF012718D02E4FBC425B
:1019D00008BF022713D02D4FBC4208BF03270ED0EB
:1019E0002B4FBC4208BF042709D02A4FBC4208BF76
:1019F000052704D0284FBC420CBF0627072707FA4B
:101A000000F01E4F40EA0E0047F82C006FEA080075
:101A10000F6800EA070C6F68FF0348BF48EA0C0C28
:101A2000C1F800C04F6800EA070C6F68BF0348BFE9
:101A300048EA0C0CC1F804C08F6800EA070C6F6814
:101A4000FF0248BF48EA0C0CC1F808C0CF6800EAA2
:101A5000070C6868800248BF48EA0C0CC1F80CC04B
:101A6000761C0F2E7FF638AFBDE8F18F02B909045E
:101A700081617047003C0140443802400838014011
:101A8000000002400004024000080240000C024036
:101A900000100240001402400018024080B50B48BC
:101AA000016841F400710160026842F480620260E2
:101AB000016841F480710160032000F016F80020F5
:101AC00001F096FA00F0A4FC002002BD003C0240A8
:101AD0000901020002D4294881547047284B02F0C2
:101AE0000F021A4402F8041C7047264B19684FF67F
:101AF000FF020002114000F4E0600843224908435D
:101B00001860704770B51F4B1C68C4F30223012492
:101B1000C3F10705052D2EBF0F2504FA05F56D1E2F
:101B20001E1D072E34BF0023DB1E2940994004FAF6
:101B300003F3BDE870405B1E1A401143C8E7010083
:101B400007D4012200F01F01104B8A40400943F8DE
:101B50002020704710B5401EB0F1807F01D30120D6
:101B600010BD0B4C60600F214FF0FF30FFF7B0FF4E
:101B70000021A16007202060002010BD00E400E0EB
:101B800018ED00E00CED00E00000FA0500E100E0D7
:101B900010E000E010B5040001D1012010BD94F860
:101BA0003D0018B900F050F800F094FC0FE0006818
:101BB000C16841F00101C160816801F00701062997
:101BC00003D0016841F0010101600020704702204C
:101BD00084F83D00211D206800F030FA012084F8CF
:101BE0003D00002010BD03D1416C41F4004141642F
:101BF000816801F00701062903D0016841F0010165
:101C00000160002010BD10B5040001D1012010BDFD
:101C100094F83D0018B900F017F801F009FAD6E77A
:101C200010B500F007F800F00AF81CBFDFF8E82054
:101C30009042D8E704460122206800F044BB2068A7
:101C4000DFF8D81088427047002184F83C10204605
:101C50007047022084F83D007047F8B504000D4637
:101C600001D10120F2BD94F83D0018B9FFF7ECFF57
:101C700000F0EAFBFFF7EDFF2168DFF888038A68D0
:101C800002408A60211D206800F0D8F92268DFF840
:101C9000781393689769166AA8680F400743A86984
:101CA000DFF8681347EA0027E8680F40E96907434F
:101CB000286947EA0127296A47EA001747EA0137F6
:101CC0006868696926F0AA0606432868034346EA5D
:101CD0000116936021688F6101212068066284F8F3
:101CE0003D100020F2BD10B5044609B1042901D110
:101CF000012203E000F00BF801220421206800F02B
:101D0000E2FAFFE7206800F00EF8002010BD20681E
:101D10000122002100F0D7BA000401400000014078
:101D2000C16001223068016841F001010160704723
:101D300010B50446206801698A0715D5C1688A076D
:101D400012D56FF00201016101222277806910F043
:101D5000030F204602D001F06CF903E001F06AF9AC
:101D600000F087F800202077206801694A0715D520
:101D7000C1684A0712D56FF004010161022222777F
:101D8000806910F4407F204602D001F052F903E050
:101D900001F050F900F06DF800202077206801690B
:101DA0000A0715D5C1680A0712D56FF0080101614D
:101DB00004222277C06910F0030F204602D001F000
:101DC00038F903E001F036F900F053F800202077ED
:101DD00020680169CA0615D5C168CA0612D56FF018
:101DE0001001016108222277C06910F4407F20466B
:101DF00002D001F01EF903E001F01CF900F039F8FF
:101E00000020207720680169CA0708D5C168CA0781
:101E100005D56FF0010101612046FEF7DBFA20686D
:101E200001690A0608D5C1680A0605D56FF0800168
:101E30000161204601F0FFF8206801694A0608D5D3
:101E4000C1684A0605D56FF040010161204601F0E6
:101E5000F3F8206801698A060AD5C1688A0607D5A1
:101E60006FF0200101612046BDE8104001F0E5B8A7
:101E700010BD204601F0E2B838B500F063F801D19A
:101E8000022032BD00F06CF832B1042A17D0082AC3
:101E900028D00C2A39D04AE02068294600F019F9E8
:101EA0002068816941F0080100F048F821F0040140
:101EB000816121688A69286902438A6137E0206864
:101EC000294600F032F92068816941F4006100F090
:101ED00035F821F4806100F031F82A6941EA0221E5
:101EE000816124E02068294600F04FF92068C1692B
:101EF00041F0080100F01EF821F00401C1612168E1
:101F0000CA6928690243CA6111E02068294600F0C5
:101F10006BF92068C16941F4006100F00BF821F40D
:101F2000806100F007F82A6941EA0221C16100F0EE
:101F30000FF832BDC1612068C169704781612068B6
:101F40008169704704460D4694F83C0001287047AB
:101F5000012084F83D00002184F83C1000207047E7
:101F6000012084F83C00022184F83D10704710B530
:101F700000F057F801D1022010BD012084F83C0088
:101F8000022284F83D20DFF8A8022268936803400B
:101F900093600868020018BF10282DD0202818BFB1
:101FA000302829D0402823D0502816D0602818D0B7
:101FB000702803D0B0F5005F07D021E000F02CF8C6
:101FC0002068816841F0770105E000F025F820687D
:101FD000816841F48041816012E000F019F85021DD
:101FE0000BE0CA684968206800F049F9602104E004
:101FF00000F00EF8402100E00146206800F051F9A1
:1020000014E00000F8BFFFFFFCFCFFFF0303FFFF2D
:10201000CA684968206823E1CB684A6889682068F3
:1020200047E1044694F83C0001287047012084F8F9
:102030003D00002184F83C10002010BDF0B57D4C1F
:1020400005687D4B7D4E7E4FDFF8F8C1A04218BF7A
:10205000B0F1804F07D0604518BFB84203D0B042FE
:1020600018BF98420DD14A6825F070051543A0426B
:1020700018BFB0F1804F17D060451CBFB842B042C6
:1020800012D098421CBF704A90420DD06F4EB042A1
:102090001CBF6F4A904207D06E4EB0421FBF6E4ABF
:1020A00090426E4EB04203D1CA6825F44075154384
:1020B0004A6925F0800515430560A0428D68C56218
:1020C0000A68826212BF9842096901630122426173
:1020D000F0BDF0B5026A574F520852000262066A1C
:1020E000446885690B688A6825F0730526F0020646
:1020F0001D431643504BB84218BF984207D1CA68D7
:1021000026F008061643B84226F0040601D098428D
:1021100005D14B698A6924F440741C43144344601C
:102120008561496841630662F0BDF0B5026A414EBF
:1021300022F010020262B042056A436884690A68AC
:1021400024F4E64444EA02248A6825F0200545EA9E
:102150000215394A18BF904208D1CF6825F0800592
:1021600045EA0715B04225F0400501D0904206D15E
:102170004E698A6923F44063164343EA8603436049
:102180008461496881630562F0BDF0B5026A22F49A
:1021900080720262056A4368C4698E680A6825F421
:1021A000007524F0730445EA06251443214E224AA3
:1021B000B04218BF904208D1CF6825F4006545EAC7
:1021C0000725B04225F4806501D0904206D14E69C2
:1021D0008A6923F44053164343EA06134360C461FB
:1021E0004968C1630562F0BD70B5026A114E22F400
:1021F00080520262B042046A4268C3690D6823F4E7
:10220000E64343EA05238D6824F4005444EA053488
:102210001CBF094DA84204D14D6922F4804242EA14
:1022200085124260C36149680164046270BD0000A8
:102230008800FFFF0000014000040140000C004046
:1022400000080040000400400040014000440140FC
:102250000048014000180040001C004000200040E1
:1022600010B5036A046A64086400046223F00A0378
:10227000846924F0F00444EA021484612EE010B56D
:10228000036A23F0100303628369046A23F4704332
:1022900043EA023324F0A004836144EA0114046297
:1022A00010BD826822F07002114341F00701816085
:1022B000704710B5846824F47F442143114341EAF8
:1022C0000321816010BD10B501F01F01036A0124D4
:1022D0008C40A343036202FA01F1036A19430162CD
:1022E00010BD000010B50446042220681CE004461E
:1022F000080004D0042907D008290AD00EE020687D
:10230000C26842F0020208E02068C26842F004029B
:1023100003E02068C26842F00802C2602068C36817
:1023200043F08003C360042200F05AF82068416C37
:1023300041F400414164816801F00701062903D09E
:10234000016841F001010160002010BD30B590F836
:102350003C20012A01D1022030BD012280F83C201E
:10236000022380F83D3004686568A3680A6825F098
:102370007005154365600268124CA24218BFB2F1A5
:10238000804F11D0104CA2421CBF104DAA420BD05E
:102390000F4CA2421CBF0F4DAA4205D00E4CA242C8
:1023A0001CBF0E4DAA4204D1496823F080030B43A1
:1023B0009360012280F83D20002180F83C1000202D
:1023C00030BD000000000140000400400008004053
:1023D000000C004000040140004001400018004093
:1023E00010B501F01F01036A04248C40A34303626B
:1023F00002FA01F1036A1943016210BD10B50446E7
:1024000010460A460146204600F01AFE204610BD3E
:1024100082B00020009000227548416841F480415C
:102420004160416801F48041009100990092036885
:1024300043F080530360006800F0805000900098E3
:10244000072002B0FFF751BB10B586B000F07DF851
:10245000226868486849B2F1804F11D10022009289
:102460000B6943F001030B6100230A6902F00102CA
:102470000092009A0093032200F01CF8012213E05E
:102480005E4B9A4214D1002200920B6943F0020382
:102490000B6100230A6902F002020092009A009385
:1024A000C02200F007F80222059201A9FFF70CFAFA
:1024B00006B010BD0C6844F001040C6002230968EA
:1024C00001F0010100910099019202930022039210
:1024D0000492704700684A49884200D0704780B52E
:1024E000002243480092016841F00401016000218C
:1024F00000F077F81E20FFF705FBBDE802401E2024
:10250000FFF71DBB10B586B000F01FF821683C48EE
:10251000814218D10022384800920222016841F01D
:1025200002010160C021006800F0020000900098E4
:1025300034480191029200210391049102210591F6
:1025400001A9FFF7C1F906B010BD0446142200210D
:1025500001A8FFF753BF38B586B0FFF7F6FF216833
:10256000294881423BD100222348284D00924169ED
:1025700041F020014161416901F020010091009981
:102580000092C021036843F004030360022200F0BC
:1025900028F81F480191029201210391032208218A
:1025A0000591049201A9FFF78FF91A4828604FF0AE
:1025B000206169604FF4807000224FF48061E8610F
:1025C000AA60EA6029616A61AA612A626A62284691
:1025D00000F0CCFA08B1FEF7D0FB6563AC6307B03E
:1025E00030BD006800F004000090009870470000C3
:1025F00040380240000002403038024000040040F1
:102600000008004000040240001401407C04002047
:10261000000802402864024040EA016040EA02707B
:1026200070472DE95041DFF87043DFF8646360685C
:10263000DFF8608300F00C00042804D0082804D0E0
:102640000C2815D027E0404626E000F027F847BFC9
:10265000C0F38816A8FB0601C0F38818A6FB080182
:1026600000F042FC2168C1F30141491C49000FE020
:1026700000F014F847BFC0F38816A8FB0601C0F3AA
:102680008818A6FB080100F02FFC2168C1F3027135
:10269000B0FBF1F000E03046BDE850810023226835
:1026A00020684102206802F03F0270472DE9F8439C
:1026B0000646DFF8E8523078C1074FD500F060F9E0
:1026C00004280DD000F05CF9082802D168684102A6
:1026D00006D400F055F90C280AD16868410207D5E4
:1026E000286881033AD57068002837D1012043E17A
:1026F0007068B0F5803F04D1286840F480302860CD
:1027000011E0B0F5A02F286806D140F480202860A1
:10271000296841F4803105E020F480302860296880
:1027200021F480212960706860B100F019FA044634
:102730002868810312D400F013FA001B6528F7D330
:10274000032019E100F00CFA04462868810305D53E
:1027500000F006FA001B6528F7D3F1E73078904FB8
:1027600081071ED5A86810F00C0F0DD000F008F9F5
:10277000082802D16868410206D500F001F90C284A
:1027800023D16868410220D42868810702D5F06807
:102790000128ABD12968306921F0F80141EAC00174
:1027A000296031780A0743D5706998B30121C7F8C9
:1027B000801E00F0D5F90446686F810738D400F018
:1027C000CFF9001B0228F7D9BAE7F068A8B10121B8
:1027D000396000F0C5F904462868810705D400F087
:1027E000BFF9001B0228F7D9AAE72868316920F051
:1027F000F80040EAC1002860D3E7386000F0B0F983
:10280000044629688807CCD500F0AAF9001B0228E5
:10281000F7D995E7C7F8800E00F0A2F90446686F73
:10282000810705D500F09CF9001B0228F7D987E73E
:10283000307841075FD5286C0024C1000AD4009489
:102840000124296C41F080512964286C00F08050EB
:1028500000900098DFF82481D8F80000C10513D457
:10286000D8F8000040F48070C8F8000000F078F953
:102870008146D8F80000C10506D400F071F9A0EB3C
:1028800009000228F5D95BE7B068012805D00528C2
:10289000286F06D140F004002867286F40F001003F
:1028A00005E0400840002867286F20F004002867F2
:1028B00041F28938B06860B100F052F98146286F62
:1028C000810713D400F04CF9A0EB09004045F6D382
:1028D00036E700F045F98146286F810706D500F0FC
:1028E0003FF9A0EB09004045F6D329E71CB1286C5D
:1028F00020F080502864B06900283CD0A96801F01D
:102900000C0108293FF4F2AE022828D100F03CF86F
:1029100004462868810105D500F022F9001B022831
:10292000F7D90DE7F069316A726A0843B16A49085C
:1029300040EA8210491E40EA0140F16A326BFFF71B
:102940006BFE6860012000F020F8044628688101D1
:1029500011D400F005F9001B0228F7D9F0E600F0C9
:1029600013F804462868810105D500F0F9F8001B2A
:102970000228F7D9E4E60020BDE8F28300700040A9
:10298000A86800F00C0070470020386600F0E8B836
:102990000024F40000127A0004380240003802409B
:1029A00000004742F8B500F027F8012100F01EF8BA
:1029B000316000F0D5F807462868C10306D400F05E
:1029C000CFF8C01BA042F7D30320F2BD01207060F6
:1029D00000F0C6F806462868810305D400F0C0F868
:1029E000801BA042F7D3EFE70020F2BD006800F0A3
:1029F00080500090009870470020009040F2E93429
:102A00000448054E0168024D41F080510160704755
:102A1000047000404038024040000E42F8B5040007
:102A20000E4651D0484D00F076F802D200F071F811
:102A30004AD12068810712D5400703D5A96841F41F
:102A4000E051A9602078010703D5A86840F46040F0
:102A5000A860A968A06821F0F0010143A96021786D
:102A6000C80728D56068012802D129688A0305E0D3
:102A7000022818BF032803D129688A0103D423E060
:102A800029688A0720D5A968890840EA8100A860DA
:102A900000F066F80746A868616800F00C00B0EB2B
:102AA000810F08D000F05CF8C01B41F289318842E8
:102AB000F1D30320F2BDD5F8000400F00F008642E8
:102AC00004D200F026F801D00120F2BD20784107A1
:102AD00005D5AA68E06822F4E0520243AA60217892
:102AE000080706D5A968206921F4604141EAC001C0
:102AF000A960FFF796FDAA681449154BC2F30312AB
:102B0000895CC84018601348006800F071FA002022
:102B1000F2BD85F80064D5F8000400F00F00B04263
:102B200070470B480C4A006813680C49C3F38222B3
:102B300006E00748084A006813680849C3F34232B0
:102B4000895CC8407047000000380240003100082E
:102B5000780400207404002008380240283200085D
:102B600001484068704700BF6C04002038B5044637
:102B7000FFF7F6FF05460CB9012032BD002084F8AE
:102B80003400022184F8351020680268520852008F
:102B9000026022681068C1070BD5FFF7E1FF401BF8
:102BA0000628F6D320206065032184F83510032021
:102BB00032BD1368DFF8980261680340A0680B43D8
:102BC000E168034320690B4361690343A0690B4338
:102BD000E1690343206A0B43616A0343042903D17B
:102BE000E16A206B0B430343136023685A69606AF0
:102BF000D208042840EAC2020AD1A56AE16A2A433F
:102C000031B1A06990B9002D18BF022D20D017D383
:102C10005A61204600F04CF9E16D3F228A40826003
:102C200000206065012184F8351032BDB0F5005FE9
:102C30000AD1032DECD8DFE805F00D0B0D03E7E713
:102C4000B1F1C07FE4D105E0022D03D9ED1EDFD143
:102C5000C801DDD540216165012084F8350032BD11
:102C6000F8B50446002594F83400A66D012801D17A
:102C70000220F2BD012084F8340094F83570012F51
:102C80001CD1022084F835006565204600F0FEF86E
:102C9000E06D3F278740B7602068016841F016016A
:102CA0000160206C20B12068016841F008010160DA
:102CB0002068016841F00101016002E084F83450AD
:102CC00002252846F2BD20680168490849000160D4
:102CD0007047F8B5044600205E4900904FF4165046
:102CE000A66D0A683768B2FBF0F5E06D082100F0C8
:102CF000B4F80ED02068026853070AD5026822F0A3
:102D000004020260E06D8140B160616D41F001013B
:102D10006165E06D27FA00F1CA070BD521684A69A1
:102D2000110607D5012202FA00F0B060606D40F094
:102D300002006065042100F08FF808D021680A685D
:102D4000930704D5B060606D40F004006065102109
:102D500000F082F81BD021680A68130717D5B0600D
:102D6000206801684A0307D5006801030BD5A16CF0
:102D700069B1204688470AE00168CA0503D40168A2
:102D800021F008010160216C09B120468847E06DFF
:102D9000202100F062F83ED021680A68D3063AD5B7
:102DA000B060206894F8351005291CD1026822F023
:102DB0001602026000F062F804BFA06C002801D087
:102DC00000F04FF83F22E06D8240B260002184F8AD
:102DD0003410012084F83500216D002936D02046BA
:102DE000BDE8F440084701684A0307D500680103BD
:102DF0000DD4616C79B1204688470CE00168CA05A2
:102E000005D4016821F01001016000F030F8E16B99
:102E100009B120468847606DC0B1606DC1070FD50C
:102E2000052084F83500FFF74EFF0098401C8542CE
:102E3000009003D320680168CA07F6D400F017F8A1
:102E4000E16C19B12046BDE8F4400847F1BD00002F
:102E50003F8010F078040020E06D01FA00F0074296
:102E600070472068016821F0080101607047002068
:102E700084F83400012184F83510704720684169D6
:102E800021F080014161206C0028704730B5046852
:102E9000256825F48025256063608068402802D17C
:102EA000A260E16030BDA160E26030BD00000000C2
:102EB00030B501461823086807A400F0FF02103A55
:102EC000B2FBF3F2800AA55CCD658002042A28BF1C
:102ED000001D886530BD00000006101600061016A3
:102EE0007047704770470000D3BBD9B1B2F5803F3F
:102EF0005BD2022A1ED98C46B1FBF2F102FB11C350
:102F00001B0443EA1043B3FBF2FC02FB1C3380B208
:102F100040EA0343B3FBF2F002FB103240EA0C40FC
:102F200000237047022A05D98446B0FBF2F002FB69
:102F300010C270474AB105D100F0010249085FEAAA
:102F40003000704700220023704700F0ADB80B003E
:102F50000200002100207047F7D3002200237047B1
:102F6000904271EB030CF2D370B5B1FA81F4B3FA6D
:102F700083F52C1BA340C4F1200532FA05F6334338
:102F8000A2405FF00046E64002E05B085FEA3202E2
:102F9000841A71EB030524BF204629467641F4D3F9
:102FA00002000B003000002170BD70B5B1FA81F451
:102FB000B2FA82F5C4F120046419B4F12006DAD320
:102FC000B2405FF00044F440002502E052085FEA9E
:102FD0003303C61A71EB020E24BF304671466441BA
:102FE0006D41F3D302000B002000290070BD0000EA
:102FF00038B50D4D0D4B2A7804464FF47A71186898
:10300000B1FBF2F2B0FBF2F0FEF7A4FD50B9102CC8
:1030100008D2002221464FF0FF30FEF773FDAC606E
:10302000002032BD012032BD6C0400207804002055
:10303000704770477047704770477047704700008F
:1030400062F30F2262F31F42401810F0030308D00E
:10305000C91A1FD3DB0748BF00F8012D28BF20F88D
:10306000022D130030B414461546103928BF20E94C
:103070003C00FAD8490728BF20E90C0048BF40F8B7
:10308000042D890028BF20F8022D48BF00F8012D2B
:1030900030BC7047C91818BF00F8012DCB0728BFF6
:1030A00000F8012D70470000704730B4002512E091
:1030B00050F8042BD30744BF4A44521E091F042969
:1030C00042F8045BFAD213468C0744BF15809B1C60
:1030D000C90748BF1D7050F8041B0029E8D130BC57
:1030E000704700000548D0F8801041F47001C0F826
:1030F00080104FF0006202607047000008ED00E0B1
:103100000000000000000000010203040607080997
:103110007047FEE7FEE7FEE7FEE77047704770473F
:1031200000F00AB80248FEF703BE0248FFF7D1BD1F
:10313000D00100207C0400200248416802788A18EF
:10314000426070476C04002010B50749794418317B
:10315000064C7C44163404E00A68081D1144884774
:103160000146A142F8D110BD2C000000480000002B
:103170004EF68851CEF20001086840F470000860F5
:10318000BFF34F8FBFF36F8F4FF00070E1EE100A67
:103190007047000017FFFFFF600000007C04002064
:1031A00000000000DBDFFFFFD8010000EE000000A0
:1031B0000000002000F00DF8002801D0FFF7C4FF48
:1031C000AFF300800020AFF30080FDF793FB00F029
:1031D00002F80120704700F001B8000007463846A9
:1031E00000F002F8FBE7000080B5AFF30080024A70
:1031F00011001820ABBEFBE726000200054801467F
:1032000003B4684680F30988AFF30080FFF7B0FF8E
:10321000FFF7D0FFA5EDF5FE0148804701480047C4
:10322000E5300008FD310008000000000102030441
:10323000FFF7FEBFFFF7FEBFFFF7FEBFFFF7FEBFC2
:10324000FFF7FEBFFFF7FEBFFFF7FEBFFFF7FEBFB2
:10325000FFF7FEBFFFF7FEBFFFF7FEBFFFF7FEBFA2
:10326000FFF7FEBFFFF7FEBFFFF7FEBFFFF7FEBF92
:10327000FFF7FEBFFFF7FEBFFFF7FEBFFFF7FEBF82
:10328000FFF7FEBFFFF7FEBFFFF7FEBFFFF7FEBF72
:10329000FFF7FEBFFFF7FEBFFFF7FEBFFFF7FEBF62
:1032A000FFF7FEBFFFF7FEBFFFF7FEBFFFF7FEBF52
:1032B000FFF7FEBFFFF7FEBFFFF7FEBFFFF7FEBF42
:1032C000FFF7FEBFFFF7FEBFFFF7FEBFFFF7FEBF32
:1032D000FFF7FEBFFFF7FEBFFFF7FEBFFFF7FEBF22
:1032E000FFF7FEBFFFF7FEBFFFF7FEBFFFF7FEBF12
:1032F000FFF7FEBFFFF7FEBFFFF7FEBFFFF7FEBF02
:10330000FFF7FEBFFFF7FEBFFFF7FEBFFFF7FEBFF1
:10331000FFF7FEBFFFF7FEBFFFF7FEBFFFF7FEBFE1
:10332000FFF7FEBFFFF7FEBFFFF7FEBFFFF7FEBFD1
:10333000FFF7FEBFFFF7FEBFFFF7FEBFFFF7FEBFC1
:10334000FFF7FEBFFFF7FEBFFFF7FEBFFFF7FEBFB1
:10335000FFF7FEBFFFF7FEBFFFF7FEBFFFF7FEBFA1
:10336000FFF7FEBFFFF7FEBFFFF7FEBFFFF7FEBF91
:10337000FFF7FEBFFFF7FEBFFFF7FEBFFFF7FEBF81
:10338000CA00011240FA3301C33FF800009AFB99CA
:1033900001C93FF200012440F8000F8C4AEA0434CE
:1033A00011F83FB9FAB1497E544740BA00011240C2
:1033B000FA3301C33FF800009AFB9901C93FF200BC
:1033C000012440F8000F8C4AEA043411F83FB9FA9E
:1033D000B1497E54474081008100BE0003FF0000D8
:1033E000018100810081008100D4000001F900000A
:0733F00010FC000224F400B0
:04000005080031FDC1
:00000001FF
