:020000040800F2
:10000000C0090020BD3B00087D3A00087F3A000887
:10001000813A0008833A0008853A00080000000091
:10002000000000000000000000000000873A000807
:10003000893A0008000000008B3A00088D3A000859
:10004000D53B0008D93B0008DD3B0008E13B000838
:10005000E53B0008E93B0008ED3B0008F13B0008E8
:10006000F53B0008F93B0008FD3B0008013C000897
:10007000053C0008093C00080D3C0008113C000844
:10008000153C0008193C00081D3C0008213C0008F4
:10009000253C0008293C00082D3C0008313C0008A4
:1000A000353C0008393C00083D3C0008413C000854
:1000B000453C0008493C0008913A00084D3C0008C6
:1000C000513C0008553C0008593C00085D3C0008C4
:1000D000613C0008653C0008693C00086D3C000874
:1000E000713C0008753C0008793C00087D3C000824
:1000F000813C0008853C0008893C00088D3C0008D4
:10010000913C0008953C0008993C00089D3C000883
:10011000A13C0008A53C0008A93C0008AD3C000833
:10012000973A00089D3A0008B13C0008B53C000829
:10013000B93C00080000000000000000BD3C0008C1
:10014000C13C0008C53C0008C93C0008CD3C000883
:10015000D13C0008D53C0008D93C0008DD3C000833
:10016000E13C0008E53C0008E93C0008ED3C0008E3
:10017000F13C0008F53C0008F93C000800000000D4
:1001800000000000FD3C000800000000000000002E
:10019000013D00080000000000000000053D0008CF
:1001A000000000000000000000000000093D000801
:1001B0000D3D0008113D0008153D0008193D0008DF
:1001C0001D3D000810B5DFF8944A2DED048BD4F8DE
:1001D0004C21B4F844110020C4F8A0039FED7F8B9C
:1001E00013685868091A491E84F891129FED7D9B87
:1001F00018E004F51E7123180A5C83F8A423401C40
:1002000094F87C128842F4DB94F87C220A2304F5EB
:10021000697104F58C7001F007F894F89002401CA5
:1002200084F8900294F8900294F89112884200F0B9
:10023000CD8094F8920218B1022821D016D375E02F
:1002400094F8900204F528710A5CFE2A0AD194F809
:100250009402401C84F8940294F89402042865D116
:1002600001210AE0002084F894025FE000F0BEF86B
:1002700094F89402082859D1022184F8921255E08A
:1002800000F0B4F804F5287294F8900294F89512EE
:10029000105C411884F8951294F8940294F8641252
:1002A000884232D194F8950294F86712884204BFCC
:1002B00094F86602022832D1D4F86802C4F8A8047F
:1002C000D4F86C22C4F8AC24D4F8680201F064F9C4
:1002D00000F07FF8C4E90001D4F86C0201F05CF989
:1002E00000F077F8C4E91601D4F8700201F054F96F
:1002F00000F06FF8C4E92201D4F8740201F04CF95F
:1003000000F067F8C4E9380109E094F8640294F851
:100310009412884203D394F89402182806D9002135
:1003200084F8951284F8921284F8941240F2F51130
:10033000D4F8A4048842FFF670AF0022C4F8A424C5
:10034000182194F8930284F87D0284F87C1203202B
:1003500084F87E0284F87F2251EC180BD4E9022342
:1003600001F048F900F06AFC00F058FC01F018FABE
:10037000C4F88002D4E9102300F04CFC01F010FA1C
:10038000C4F88402D4E9262351EC180B01F032F9A9
:1003900000F054FC00F042FC01F002FAC4F88802BC
:1003A000D4E9322300F036FC01F0FAF9C4F88C02EB
:1003B000082004F51E71095C94F87F22401C8918FE
:1003C000182884F87F12F4D3002019E7BDEC048BC1
:1003D00010BD0022DFF8E43C01F0FEB9000000008F
:1003E000008066400000000000408F4094F89402B6
:1003F000411C84F8941204F5287294F89012535C0E
:1004000004F51872135470472DE97842DFF84C68F0
:1004100006F5087188422DED0A8B40F0B983B6F8D5
:100420009A02642290FBF2F2642101FB1200002880
:100430009FEDAD8B40F00C810024A6F89A42D6E9DE
:1004400000010122DFF8783C01F0EAFA98BFC6E922
:10045000004306D9D6E9000100F0FBFB38BFC6E92E
:10046000002396ED000B9FEDA29B53EC102B00F0A8
:10047000D1FB00F0E9FBD6E9022301F0A9FBC6E9B4
:1004800006010122D6E90601DFF8383C01F0C8FA7E
:1004900007D9D6E906010022DFF82C3C01F00AFC5E
:1004A00003D296ED080B86ED060B9FED93AB96ED10
:1004B000060BD6E9082300F08DFBC6E90A01DFF838
:1004C0000C2CDFF80C3CD6E9060101F0A9FA04D89F
:1004D000D6E9062351EC1A0B08E0D6E9060100F034
:1004E000A1FB07D2D6E9062351EC180B01F0B2FAB2
:1004F000C6E9060196ED060B96ED0C1B96ED0ABBC0
:1005000000F07EFB04460D46D6E90E0153EC1B2B92
:1005100001F070F800F05AFBC6E92001DFF8B42BB7
:10052000DFF8B43BD6E9200101F07AFA04D8DFF80D
:10053000AC0BDFF8AC1B0CE0D6E92001DFF8A42BF4
:10054000DFF8A43B01F0B6FB05D2DFF8900BDFF833
:100550009C1BC6E92001DFF8983BD6E92201012265
:1005600001F05EFA04D9D6E9260101F059FA02D861
:100570000020C6E92203D6E9220100F06AFB04D379
:10058000D6E9260101F096FB01D2C6E9222396EDB9
:10059000220B53EC102B00F03DFB00F055FBD6E98D
:1005A000262301F015FBC6E92A0196ED2A0BD6E9B0
:1005B000242300F00FFBC6E92C01DFF8102BDFF835
:1005C000103BD6E92A0101F02BFA04D8D6E92A23F8
:1005D00051EC1A0B08E0D6E92A0100F023FB07D200
:1005E000D6E92A2351EC180B01F034FAC6E92A01A6
:1005F00096ED2A0B96ED2E1B96ED2C9B00F000FB42
:1006000004460D46D6E9300100F008FB00F0DEFAA2
:10061000C6E944010122D6E94401DFF8D83A01F0E5
:10062000FFF903D80020C6E9440309E0D6E94401F4
:100630000022DFF8C43A01F03DFB38BFC6E944238D
:1006400096ED060B86ED080B96ED2A1B86ED241B16
:100650001422B6F89A0290FBF2F2142101FB120068
:100660000028DFF8984A9FED989B9FED99AB9FED8E
:100670009ABB40F03F8196ED380BD6E9442351EC0C
:10068000100B01F017FB04D296ED380B86ED440BEE
:100690000CE096ED440BD6E9382300F09FFA05D222
:1006A000D6E9380181F00041C6E94401D4F80034AC
:1006B000A6F89C32B6F89C12B6F89E02091AC6F843
:1006C000B4144FF6E950B6F89C12814218DBB6F824
:1006D0009E12B1F5FA7F13DAD6F8B414DFF8200AC7
:1006E0004118C6F8B4141CE07A008BFCFA211940BA
:1006F0007A008BFCFA2109407A008BFCFA2119C0A0
:10070000B6F89C0264280CDAB6F89E024FF6DD714A
:10071000884206DBD6F8B40400F57F40FF30C6F807
:10072000B404D6F8B40400F037FF0022DFF8D4395F
:1007300001F052F800F05CFAD6E9262301F08AF9BC
:10074000C6E92601B6F89C02A6F89E0296ED440B77
:1007500086ED340B96ED260BD6E9282300F03AFA05
:10076000DFF8A429DFF8A43901F036F8C6E9320130
:1007700096ED260B86ED280B96ED340BD6E9322349
:1007800000F028FAC6E9360196ED360B96ED3C1BD3
:1007900096ED3ACB00F034FA05468946D6E93E019B
:1007A00053EC1C2B00F026FFDFF85C29DFF85C39E6
:1007B00000F020FF2A464B4601F04CF9C6E9420101
:1007C00096ED360BD6E93A2351EC100B01F042F9C5
:1007D000C6E93A01D6E9342300F00EFA00F0E0FF52
:1007E000C6F8D804D6E9322300F006FA00F0D8FFA4
:1007F000C6F8DC04D6E9220100F0D2FFC6F8E00416
:10080000D6E9262351EC1B0B00F0F4FE00F016FA9B
:1008100000F0C6FFC6F8E404D6E94201DFF8F0288C
:10082000DFF8F03801F0FCF812D800F0BCF9DFF87E
:10083000E81800F0D9F900F0E9F900F0F9F900F052
:10084000BFF9C6E93A01DFF8D408DFF8C8181AE0A2
:10085000D6E94201DFF8C428DFF8BC3801F02AFAF3
:1008600013D200F0A0F9DFF8AC1800F0BDF900F0E9
:10087000CDF900F0DDF900F0A3F9C6E93A01DFF89F
:100880009C08DFF89418C6E94201DFF89418D6E90D
:100890004223002000F0AEFE0022DFF8883801F08D
:1008A000D9F800F07DFFA6F89802B6F99812DFF8A3
:1008B0007808002914D400224FF4807101F0E6FA80
:1008C000B6F9980214E000BF0000000000000840E4
:1008D0000000000000005940000000000080664059
:1008E00001224FF4807101F0D1FAB6F9980240422A
:1008F000C4F81408B6F89A020A2290FBF2F20A2110
:1009000001FB1200002840F0F68096ED160BD6E9A8
:10091000202351EC100B01F0CDF904D296ED160B0B
:1009200086ED200B0CE096ED200BD6E9162300F0A7
:1009300055F905D2D6E9162383F00043C6E92023F2
:100940002568DFF8E8074519C6F8B054D6F8B004B2
:1009500000F022FE0022DFF8D83700F03DFF00F063
:1009600047F9C6E9020196ED200B86ED120B96EDD4
:10097000020BD6E9042300F02DF9DFF88C27DFF80D
:10098000B43700F029FFC6E9100196ED020B86EDA1
:10099000040B96ED120BD6E9102300F01BF9C6E903
:1009A000140196ED140B96ED1A1B96ED188B00F0C2
:1009B00027F905468946D6E91C0100F019F9DFF848
:1009C0004827DFF8703700F015FE2A464B4601F045
:1009D00041F8C6E91E0196ED140BD6E9182351EC37
:1009E000100B01F037F8C6E91801D6E9122300F020
:1009F00003F900F0D5FEC6F8C804D6E9102300F0CC
:100A0000FBF800F0CDFEC6F8CC04D6E9000100F0FA
:100A1000C7FEC6F8D004D6E9022351EC1B0B00F048
:100A2000E9FD00F00BF900F0BBFEC6F8D404D6E9EE
:100A30001E01DFF80427DFF8043700F0F1FF16D8B5
:100A400000F0AAF8DFF8F81600F0CEF8054689465F
:100A500053EC182B00F0DEF800F0EAF800F0AAF8EA
:100A6000C6E91801DFF8DC06DFF8D0161EE0D6E98B
:100A70001E01DFF8D026DFF8C83601F01BF917D2C7
:100A800000F08AF8DFF8B41600F0AEF805468946A3
:100A900053EC182B00F0BEF800F0CAF800F08AF80A
:100AA000C6E91801DFF89C06DFF89416C6E91E01B6
:100AB000DFF89416D6E91E23002000F09BFD00F01D
:100AC0006FFEA6F89602B6F99612DFF880060029A6
:100AD00007D401224FF4007101F0D8F9B6F996025B
:100AE00007E000224FF4007101F0D0F9B6F9960248
:100AF0004042C4F81008012206F5976106F5AC7073
:100B000001F0AAFAD6F8B80401F02AFCDFF8402672
:100B1000DFF8403600F06EFD0446D6F8C0040D46FE
:100B200001F01EFCDFF83026DFF8303600F062FD01
:100B300000F04CF801F022FCC6F8C404D6F8C40456
:100B4000C6F8C004D6F8C40401F00AFC4FF06632BF
:100B5000DFF80C3600F04EFD0022DFF8083600F01A
:100B600049FDDFF80426DFF8043600F073FF0022A9
:100B7000DFF8FC3500F03EFDC6E94001D6F8A404DC
:100B8000401CC6F8A404B6F89A02401CA6F89A02C3
:100B9000BDEC0A8BBDE8718296ED1E0B96ED1A8BAB
:100BA000DFF8A005704796ED420B96ED3CCBDFF8E1
:100BB0006C05704702460B46D6E9180101F008B8EB
:100BC00002460B46D6E93A0101F002B822462B460E
:100BD00000F040BF51EC100B00F0FABF51EC100BCD
:100BE00083F0004301F066B853EC102B00F032BFE5
:100BF00053EC182B00F0FEBC51EC1A0B00F0FABCC1
:100C000053EC102B51EC110B00F0F4BC0546894657
:100C100053EC1C2B51EC190B00F0ECBC53EC192BD2
:100C200000F0E8BCDFF84C25DFF84C3501F042B8A5
:100C300002460B462846494600F0CEBDDFF8342573
:100C4000DFF88C3400F0C8BD0022DFF8303500F04A
:100C5000C3BD0022DFF8283501F02CB800000020C9
:100C60002DE9F841DFF81C45DFF81C75DFF8DC548E
:100C7000DFF8B48401208DB0C4F8E8040021A4F8A2
:100C8000981201F08DFBFE2084F87B0284F87A0232
:100C900084F8790284F8780200F0C7F900F086FA47
:100CA00000200090396841F0040139600021386863
:100CB00000F004000090009800913A6842F0800231
:100CC0003A60386800F080000090009800913A681F
:100CD00042F001023A60386800F00100009000988C
:100CE00000914FF472613A6842F002023A600022C9
:100CF000386800F002000090009800F081F90022AE
:100D00004FF4E06100F079F94FF40050DFF87C1403
:100D1000019002910022039201A9DFF8740400F00F
:100D2000E3FF4FF4726100F06EF9284600F0DCFF3B
:100D30004FF4E06100F067F9404600F0D5FF002075
:100D400000900022396841F4800139600021386840
:100D5000DFF8407400F4800000900098382001F023
:100D600053FB382001F06DFB00220021392001F0F7
:100D70004BFB392001F065FB4FF4E130C4F81C0156
:100D800000210C20C4F82C01C4F82011C4F824114F
:100D9000C4F82811C4F83011C4F83411C4F818711B
:100DA00004F58C7000F008FA00F035F900F038F91D
:100DB0004FF0804606F580600021C4F8E001C4F8D9
:100DC000E41100204FF6FF71C4F8E801C4F8EC11FB
:100DD000C4F8F00100210320C4F8F8110290039137
:100DE000012205910691079109910A9104920892B6
:100DF00002A904F5F07001F0B2FB0021009101910D
:100E000004F5F070694601F023FF00F004F900F0EA
:100E100007F90020C4F8A4010021DF48C4F8A81194
:100E2000C4F8AC01C4F8B01100200121C4F8B80125
:100E30000291039004910590069007900891099003
:100E40000A90C4F8A06102A904F5D07001F087FBF4
:100E500000210091019104F5D070694601F0F8FE7F
:100E60001022002109A801F04BFF00F0D9F81C2244
:100E700000F0D2F806F50060C4F820020121C4F8A1
:100E800024120020C4F8280240F6C901C4F8300238
:100E9000C4F83802C4F82C1204F5087001F0FCFA0A
:100EA0004FF48050099009A904F5087001F0E1FCA5
:100EB00004F5087001F029FB00210091019104F56F
:100EC0000870694601F0C4FE60210291002203927D
:100ED0000492069200F08CF8042200F089F804F5E0
:100EE000087001F0D1FF102200F09BF84FF4803120
:100EF000C4F85C1107F540600121C4F8681184F85A
:100F00007011C4F85801002184F878110020A34919
:100F1000C4F88011C4F86001C4F88401C4F8640105
:100F20000121C4F8741184F88811C4F86C1104F517
:100F3000AC7000F0C3FF0B2001210090019106224C
:100F40000292694604F5AC7001F00FF93C2104F5FA
:100F5000D07001F04AFB924870624FF4807204F541
:100F6000287104F58C7000F0C1F904F5087001F0E7
:100F7000A0FA002104F5087001F0D4FA002104F56C
:100F8000087001F031FE042104F5087001F0CAFA7E
:100F9000042104F5087001F027FE3C2104F5F070EF
:100FA00001F023FB00224FF4807100F029F80122A8
:100FB0004FF4007100F024F801224FF4806100F03A
:100FC0001FF801224FF4006100F01AF800224FF4DC
:100FD000807100F012F800224FF4007100F00DF85B
:100FE00000224FF4806100F008F8FFF7EBF8FCE70F
:100FF00002A904F5087001F0C1BB404600F046BFED
:10100000284600F043BF0191012200210391049181
:10101000029201A970472422002102A801F070BEAB
:1010200008220021684601F06BBE00B593B034225F
:10103000002106A801F064FE00F0B8F8002000903E
:1010400001235848016841F0805101600021006887
:1010500000F080500090009853480091026842F4DC
:10106000404202600222006800F44040009006A85E
:101070000099069210210A910C92002108220D91EC
:101080000E92B421022209930F91109211921292A2
:1010900001F0D6FF02F050F90221029100220392E2
:1010A0000F204FF4A051019004914FF4805205920B
:1010B000052101A802F07CF913B000BD00408F406B
:1010C0000080564000807640008076C07B008BFC1C
:1010D000FA21094090C2F5285C0F10405C8FC2F5E0
:1010E00028DC10408FC2F5285C0F10C028DC10C02F
:1010F00000003E4000000440000004C02400004006
:101100000100FFFF00ED0741FCA9F1D24D62503F05
:10111000CECCCCCCCCCCFC3FCCCCFCBFCDCCCCCC46
:10112000009491400000F0BF00040240383333F3D4
:1011300000001A414D62403F9B9999999999F93F56
:101140009999F9BF9A99999900F995400000024040
:101150007B14AE47E17AA43FB81E85EB51B8EE3F51
:1011600066660A400000303F00917EFB3A7004C082
:10117000000024407A008BFCFA2109C00080664000
:10118000008056C0000000203038024000002110CE
:101190000008024000140140909999190100000FC5
:1011A000C8CCCC0C40380240007000401422002112
:1011B00001A801F0A5BD704710B5040001D10120C0
:1011C00010BD94F8390008B900F01EF800F011F8CD
:1011D00000F020F8FFE741612068C16841F4005148
:1011E000C1600020E063202184F8391084F83A10AF
:1011F00010BD242084F839002068C16821F4005112
:10120000C160204600F054B9002184F8381020460F
:1012100001F065BE2068016921F4904101612068F8
:10122000416921F02A0170472DE9FC4105460C4631
:1012300095F83900202817461E4643D10CB13800D6
:1012400001D101203FE095F8380001283AD000F0A4
:1012500042F8212185F8391002F04CF98046AF841C
:10126000EF84002085F8380003E0286814F8011B9B
:101270004160E88CC0B1E88C411EE98400F025F89B
:101280000DD100F02EF8B0B920882968C0F308000D
:1012900048602869002814BF641CA41CE9E700F01A
:1012A00020F80028E1D006E00096434600224021C5
:1012B00000F019F808B1032005E0202085F8390076
:1012C000002000E00220BDE8F6814346A8680096B1
:1012D000B0F5805F7047012185F838100020E86381
:1012E000704700228021284600F098B838B504469F
:1012F000134694F83A00202842D109B1180001D1D0
:10130000012032BD94F83800012839D0012084F83A
:101310003800A162A3850020E063222284F83A20ED
:101320000FF26900626BD063626B0FF29900106478
:10133000626B0FF29900D0640020656B28650A4645
:101340002068011D606B02F055F9002100912268B0
:10135000136800932068416800910021009884F888
:1013600038102268D06840F48070D06020684169ED
:1013700041F0010141612068416941F0400101E013
:10138000022032BD4161002032BD0000816B006847
:101390000268D30513D40020C8850868C26822F407
:1013A0008072C2600868426952085200426108684F
:1013B000426922F040024261202081F83A0008464A
:1013C00002F058BA806B02F056BA000010B5846B78
:1013D00020684169080658BF94F8391008D594F878
:1013E0003900212804D10021E184204600F049F889
:1013F0002168486994F83A10222906D1400604D59C
:101400000021E185204600F045F8E06B40F0100037
:10141000E0632046BDE8104002F02EBA2DE9F0410D
:10142000069C05460E4690461F46286801683140D6
:10143000B1420CBF01200020404518D114F1010F2A
:10144000F3D024B102F056F8C01B8442EDD22868D4
:10145000C16821F4D07100F00DF8202085F8390022
:1014600085F83A00002085F83800032000E00020CD
:10147000BDE8F081C16028684169490849004161BF
:1014800070470168CA6822F0C002CA60202180F853
:10149000391070470168CA6822F49072CA60016806
:1014A0004A69520852004A61202180F83A10704778
:1014B000D0B50646192432681169F06821F440510C
:1014C000014311616FF06307D3682D48B168034091
:1014D00030690B4371690343F0690B430343D360E5
:1014E0005169B06921F4407101435161F3692548A4
:1014F0002549B3F5004F1FD18A4218BF824202D15D
:1015000001F0E1FF01E001F0D6FF0246A4FB020179
:101510007268D30F520002F0B1F900F037F8FF0003
:1015200032376420B7FBF0F0420002F4F87202EBAD
:10153000011200F007001DE08A4218BF824202D16A
:1015400001F0C1FF01E001F0B6FF0246A4FB020179
:101550007268930F920002F091F900F017F83F01C2
:1015600032376420B7FBF0F000F0F00202EB01121A
:1015700000F00F00316880188860D0BD00000000C6
:10158000F369FFFF00140140001001406421B0FB2B
:10159000F1F107FB0107704710F0004160B148BF4F
:1015A0004042B0FA80F29040D21CC2F5846241EA17
:1015B000025202EBD0214005704730B501688468C3
:1015C0004218416802EB5103C90703D54C4401E0BE
:1015D000491C08D19A4218BF12F9011B01D10C30E5
:1015E00030BD12F8015B002904F8015BF0D4491EFC
:1015F000F7D5EFE730B540F2FF7C1CEA11541DBF70
:101600001CEA1355644565453FE0641981EA030C03
:101610006FF35F530CF0004C43F48013C90241F0A8
:10162000004141EA505EC5021100A5FB02020028FC
:101630004FF00000EEFB01204FF00001E3FB05211D
:1016400018BF42F00102401800214941E3FB0E019E
:10165000A4F580640D0302D292184041494154F12F
:10166000010470DD450872F1004250F1000051EBB9
:101670000451A1F5801102D441EA0C0130BD40F2C1
:10168000FF7E4CEA0E51002030BD0CEA1355644534
:1016900018BF654581EA030C0CF0004C41D050EABC
:1016A000410E1CBF52EA430E02E06146002030BDED
:1016B00024422C441BD15FEA050EF6D0090302BF79
:1016C00001460020AEF1140EB1FA81F5AEEB05042F
:1016D00001FA05FE0C35C5F1200100FA05F5C840F8
:1016E0004EEA000E6FF35F5343F480139CE733F030
:1016F0000043B3FA83F504BFB2FA82FE75440B3D92
:10170000641BB5F1200E2FBF02FA0EF3AB40C5F1FA
:10171000200E22FA0EFE38BF43EA0E03AA40641CD4
:101720007CE750EA410E14BF52EA430E6FF000010D
:101730004FF4001515EB430F8EBF194615EB410F03
:101740009DE7B4D830BDD4F10104B4F120050FDA1F
:10175000C4F12005520828BF42F0010210FA05FE2C
:1017600001FA05F57244E2BFE0402843E1400FE092
:10177000352C9ADCC5F1200452EA400220FA05F229
:1017800018BF42F0010231FA05F0A1400A430021DE
:1017900072F1004250F1000051EB0C0130BD00002D
:1017A000C1F30A5340F21E42D31A0CDDCA0283F37E
:1017B000070342EA505242F00042DA4002EBE17283
:1017C00082EAE17070476FEAE17203F2E13008B13A
:1017D00082F0004070470000F0B540F2FF7581EAEA
:1017E000030C0CF0004C15EA11541DBF15EA1357F9
:1017F000AC42AF42E5E0BC41C1F31301C3F31303B4
:10180000801A994143F4801304D2641E00184941A0
:1018100080185941C90241EA5051B1FBF3F603FB6C
:101820001611A2FB0675D7EBC020A94102D2761E85
:1018300080185941C90241EA5051B1FBF3FE03FB44
:101840001E11A2FB0E75D7EBC020A94103D2AEF149
:10185000010E80185941890241EA9051760546EA05
:101860008E2EB1FBF3F603FB1611A2FB0675D7EB28
:101870008020A94102D2761E80185941C90241EA4E
:1018800050514EEA060EB1FBF3F603FB1611A2FB14
:101890000675D7EBC020A94102D2761E80185941A7
:1018A000C90241EA5051B1FBF3F703FB1711A2FB48
:1018B0000735D3EBC020A94167F100070CBF0042F8
:1018C00047F0010766F3D5274FEA1E31B80814F533
:1018D000806412DDBD0775F1004250EB0E5051EBF4
:1018E000045111F5801F5CBF41EA0C01F0BD4CF0C2
:1018F0007F6141F0E0410020F0BDBD076D0840EA86
:101900000E5041F48011D4F10104B4F120060ADA3A
:10191000C4F120060200E04001FA06F3E14018435A
:10192000B24015430EE0342C13DCC6F1200445EA26
:1019300040056D0820FA06F2154321FA06F0A14091
:101940000D43002175F1004250F1000051EB0C01F4
:10195000F0BD00205FEA0C01F0BDCFB992185B41E9
:10196000B3FA83F704BFB2FA82F6BF190B3FB7F19F
:1019700020062FBF02FA06F3BB40C7F1200622FA69
:1019800006F638BF3343BA401CB1E419641E33E78E
:101990007F4231F00041B1FA81F404BFB0FA80F621
:1019A000A4190B3CB4F120062FBF00FA06F1A140A8
:1019B000C4F1200620FA06F638BF3143A0403C1B94
:1019C0001AE7AC421ABF05EA1357AF4212E050EAD9
:1019D00041061CBF52EA4306BFE750EA41073046C2
:1019E00061461CBF41EA0551F0BD52EA430C08BFF5
:1019F000C143F0BD00204FF4001616EB410F98BF15
:101A000016EB430F08BF16EB410F24BFC14305E09F
:101A100016EB430F0CBF61464CEA0551F0BD0000C8
:101A200041EA030C50EA4C0C52EA0C0C4FF4001C37
:101A300009D307D01CEB410F9CBF1CEB430F99420D
:101A400008BF904270471CEB410FFBD88B4208BF88
:101A50008242704770B491EA030F4FF0004540F1A5
:101A6000BF806B40841A71EB030604D26E40001BEA
:101A7000B141121973414FF4001C1CEB410F34BFEC
:101A80007CEB430683E00C0DA4EB1356362E00F3DB
:101A90007C80012E45EAC32341DC43EA525312BF46
:101AA000D20292025B08240545EAC12141EA505165
:101AB000D2EBC020994125D407D1B0FA80F610FAB4
:101AC00006F162D00020203608E0B1FA81F6B1407C
:101AD000C6F1200220FA02F21143B0404FEAF4743A
:101AE000B4EB465434F001064FEA74040AD8D6F534
:101AF0000016760D04F00044F04061FA06F2504002
:101B0000F1404840C00A40EA415021F0004128BF5E
:101B10005FEA500550F1000044EBD12135E0DB0ACB
:101B200045EAC121C90AB6F120050EDD42EA0242AA
:101B3000120CC5F1200603FA06F6EB4042EA060550
:101B40006D42984161F100010DE062FA06F5F24044
:101B5000554063FA06FC82EA0C02F3405A406D429B
:101B6000904161EB030111F4801F05D1641E6205F1
:101B700002D06D004041494121F48011430875F1C4
:101B8000004350F1000041EB045170BC70471CEB66
:101B9000410F15D223F0004352EA43060BD04FEA1F
:101BA0004C0CBCEB410F04D80C0D661E342EB7DD77
:101BB000EBE7801A994150EA410608BF0021E4E7AB
:101BC00008BF1CEB430F28BF6FF00001DDE70000EA
:101BD00070B491EA030F4FF000457FF543AF6B40BF
:101BE000841A71EB030603D2001BB1411219734131
:101BF0004FF4001C1CEB410F34BF7CEB430442E06C
:101C00000C0DA4EB1356352E4FDC45EAC323DB0A3B
:101C100045EAC121C912B6F120050DDD63FA05F6CA
:101C2000EB4086EA0305124218BF45F00105C018D3
:101C300051F100010CD213E062FA06F5F240554072
:101C4000F3415A40B340F3405A408018594107D3FA
:101C500049085FEA30005FEA350528BF45F0010515
:101C600001F58011420875F1004250F1000041EB8E
:101C700004514E0016F5001F70BC38BF704700209D
:101C8000090D090570471CEB410F10D252EA4306BB
:101C90000BD0BCEB410F05D80C0DAB43661E342EA8
:101CA000B6DD02E0AB438018594170BC704770BC90
:101CB0007047000041EA030C50EA4C0C52EA0C0C4D
:101CC0004FF4001C09D307D01CEB410F9CBF1CEB49
:101CD000430F8B4208BF824270471CEB430FFBD877
:101CE000994208BF904270472DE9F84F0D460026F3
:101CF0006849694A0F23044601202F68B04000EA72
:101D00000708804540F0BC804FEA460C032707FADD
:101D10000CF76FEA070E6F68012F18BF022F03D070
:101D2000112F18BF122F12D1A768D5F80C900EEA08
:101D3000070709FA0CF949EA0707A760676827EA65
:101D400000006F68C7F30017B74038436060E06871
:101D5000AF680EEA000007FA0CF73843E060B00005
:101D60006F68022F18BF122F12D1F70804EB8707F4
:101D700000F01C09D7F820A003FA09FB2AEA0B0A95
:101D8000D5F810B00BFA09F949EA0A09C7F820900A
:101D900027680EEA070E2F7907F0030707FA0CF7FA
:101DA00047EA0E0727606F68FF0069D50027009794
:101DB0004FEA960C176847F48047176000F00C0054
:101DC000176807F48047009703FA00FE009F334F1F
:101DD00057F82C7027EA0E0E314FBC4208BF00277F
:101DE0001DD0304FBC4208BF012718D02E4FBC4237
:101DF00008BF022713D02D4FBC4208BF03270ED0C7
:101E00002B4FBC4208BF042709D02A4FBC4208BF51
:101E1000052704D0284FBC420CBF0627072707FA26
:101E200000F01E4F40EA0E0047F82C006FEA080051
:101E30000F6800EA070C6F68FF0348BF48EA0C0C04
:101E4000C1F800C04F6800EA070C6F68BF0348BFC5
:101E500048EA0C0CC1F804C08F6800EA070C6F68F0
:101E6000FF0248BF48EA0C0CC1F808C0CF6800EA7E
:101E7000070C6868800248BF48EA0C0CC1F80CC027
:101E8000761C0F2E7FF638AFBDE8F18F02B909043A
:101E900081617047003C01404438024008380140ED
:101EA000000002400004024000080240000C024012
:101EB00000100240001402400018024038B50446E9
:101EC00000250CB9012032BD206C28B9204600F055
:101ED0003DFF656484F83C50206CC10600F193809E
:101EE000206CDFF8D01320F4885040F0020020640A
:101EF000086820F4403008600A68606802430A609D
:101F00002068416821F4807141602068416822693D
:101F100041EA022141602068416821F0407141603E
:101F200021684A68A06802434A602068816821F4F9
:101F30000061816021688A68E06802438A602068E5
:101F4000A16ADFF874239142816821F07061816099
:101F50000CD021688A68A06A02438A6000F059F8B0
:101F600021688A68E06A02438A6001E000F051F863
:101F70002068816821F0020100F051F8227E41EAD8
:101F80004201816094F820002168002848680FD041
:101F900040F4006048602068416821F4604141607D
:101FA00020684168626A521E41EA4231416002E0A3
:101FB00020F4006048602068C16A21F47001C162A9
:101FC0002068C16AE269521E41EA0251C16220687A
:101FD000816821F4007100F022F894F8302041EA81
:101FE000422100F01CF821F4806100F018F86269C9
:101FF00041EA822181606564216C21F0020141F097
:102000000101216400E00125002084F83C002846FD
:1020100032BD2068816821F0405181607047816045
:10202000206881687047D1F8FC1211F01F0F7047CB
:10203000D1F8FC1201F01F0110297047816841F0AE
:10204000804181607047086840F0804008607047B8
:10205000816811F0405F70477CB50446002013464C
:10206000009094F83C20012A01D1022076BD012085
:1020700084F83C0020688268D5070DD48268944DAE
:1020800042F00102826093480268B2FBF5F505EB6D
:102090004505009500F005F922689068C5075BD5F5
:1020A000266C8A48064046F48076266450684205CD
:1020B00005D5206C20F4005040F480502064206C42
:1020C000C20446BF606C20F006000020606400225D
:1020D00084F83C200FF20520A26BD063A26B0FF2B4
:1020E00065201064A26B0FF26520D0646FF02200AF
:1020F000256828602068426842F0806242600A4693
:102100002068856845F480758560206800F14C0181
:10211000A06B01F06FFA206800F020F814D1904213
:102120000CD0684A904203D1FFF77DFF14D105E03F
:10213000654A904210D1FFF77BFF0DD2FFF788FF71
:102140000AD1FFF77BFF07E0904204BF086810F058
:10215000405F01D1FFF777FF002076BD5849574A0D
:10216000D1F8FC3213F01F0F704778B502460020FB
:10217000009092F83C30012B01D1022072BD012069
:1021800082F83C0007240B6810680A2B12D30A3B24
:10219000C56803EB43039C4025EA0404C460C3689C
:1021A0000D688C68A5F10A0606EB4606B440234389
:1021B000C3600FE0056903EB430304FA03F325EA68
:1021C0000303036103690D688C6805EB4505AC40AA
:1021D000234303611F244B68072B0CD25B1E456B06
:1021E00000F059F84463436B4D680C886E1E00F094
:1021F0004DF843631BE00D2B0CD2DB1F056B00F089
:102200004AF80463036B4D680C88EE1F00F03EF83B
:1022100003630CE00D3BC56A00F03DF8C462C36A7D
:102220004D680C88A5F10D0600F030F8C362234B11
:10223000984226D10C681F48122C07D1036823F45A
:1022400000030360046844F4800404600B68224CBB
:10225000A34218BF112B14D1036823F48003036039
:10226000056845F4000505600868A04209D11949D0
:10227000174C0B68B3FBF4F40A204443009400F0BD
:1022800010F8002182F83C10002072BD06EB860693
:10229000B4402343704703EB83039C4025EA0404C6
:1022A000704702E00098401E009000980028F9D185
:1022B00070470000042301400100000F002001408E
:1022C000082001400021014000220140FEF9FFFFEB
:1022D00040420F00F804002012000010816B0A6CCD
:1022E00012F0500F24D1086C40F4007008640A68A2
:1022F000906810F0405F04BF087E002815D1D06AB6
:1023000010F4700F02D0906843050ED4506820F08E
:1023100020005060086C20F480700864086CC204CF
:1023200003D4086C40F001000864084601F029BBA2
:102330000A6CD30644BF084601F024BB896BCA6C03
:1023400010470000806B01F01EBB0000806B402135
:102350000164426C42F00402426401F013BB0000CD
:1023600050B1B0FA80F18840C91CC1F584610905FB
:1023700001EBD0214005704701467047400D40F207
:102380001E4C40EAC120BCEB115C40F0004003D47D
:102390008CF30701C84070476FEAE1707047000096
:1023A00080B50B48016841F400710160026842F495
:1023B00080620260016841F480710160032000F0D6
:1023C00016F8002001F0E0FA00F0A4FC002002BDA5
:1023D000003C02400901020002D4294881547047A0
:1023E000284B02F00F021A4402F8041C7047264BD7
:1023F00019684FF6FF020002114000F4E060084344
:10240000224908431860704770B51F4B1C68C4F31D
:1024100002230124C3F10705052D2EBF0F2504FA61
:1024200005F56D1E1E1D072E34BF0023DB1E29403F
:10243000994004FA03F3BDE870405B1E1A40114353
:10244000C8E7010007D4012200F01F01104B8A40A9
:10245000400943F82020704710B5401EB0F1807F3E
:1024600001D3012010BD0B4C60600F214FF0FF30F5
:10247000FFF7B0FF0021A16007202060002010BD01
:1024800000E400E018ED00E00CED00E00000FA05CB
:1024900000E100E010E000E010B5040001D10120EF
:1024A00010BD94F83D0018B900F050F800F0D1FCD0
:1024B0000FE00068C16841F00101C160816801F06E
:1024C0000701062903D0016841F0010101600020E5
:1024D0007047022084F83D00211D206800F030FA8A
:1024E000012084F83D00002010BD03D1416C41F46F
:1024F00000414164816801F00701062903D00168A9
:1025000041F001010160002010BD10B5040001D1AF
:10251000012010BD94F83D0018B900F017F801F043
:1025200053FAD6E710B500F007F800F00AF81CBF20
:10253000DFF8E8209042D8E704460122206800F046
:1025400044BB2068DFF8D81088427047002184F827
:102550003C1020467047022084F83D007047F8B5D3
:1025600004000D4601D10120F2BD94F83D0018B9D8
:10257000FFF7ECFF00F028FCFFF7EDFF2168DFF824
:1025800088038A6802408A60211D206800F0D8F91B
:102590002268DFF8781393689769166AA8680F4075
:1025A0000743A869DFF8681347EA0027E8680F4087
:1025B000E9690743286947EA0127296A47EA0017BA
:1025C00047EA01376868696926F0AA060643286861
:1025D000034346EA0116936021688F610121206858
:1025E000066284F83D100020F2BD10B5044609B122
:1025F000042901D1012203E000F00BF8012204219B
:10260000206800F0E2FAFFE7206800F00EF80020F2
:1026100010BD20680122002100F0D7BA000401405B
:1026200000000140C16001223068016841F00101F1
:102630000160704710B50446206801698A0715D506
:10264000C1688A0712D56FF0020101610122227769
:10265000806910F0030F204602D001F0B6F903E0C4
:1026600001F0B4F900F087F80020207720680169B4
:102670004A0715D5C1684A0712D56FF004010161F8
:1026800002222277806910F4407F204602D001F0B8
:102690009CF903E001F09AF900F06DF80020207732
:1026A000206801690A0715D5C1680A0712D56FF0BD
:1026B0000801016104222277C06910F0030F20464F
:1026C00002D001F082F903E001F080F900F053F844
:1026D0000020207720680169CA0615D5C168CA069E
:1026E00012D56FF01001016108222277C06910F441
:1026F000407F204602D001F068F903E001F066F95E
:1027000000F039F80020207720680169CA0708D551
:10271000C168CA0705D56FF0010101612046FDF7C8
:1027200073FE206801690A0608D5C1680A0605D546
:102730006FF080010161204601F049F920680169CC
:102740004A0608D5C1684A0605D56FF04001016107
:10275000204601F03DF9206801698A060AD5C16862
:102760008A0607D56FF0200101612046BDE81040C0
:1027700001F02FB910BD204601F02CB938B500F09A
:1027800063F801D1022032BD00F06CF832B1042AA6
:1027900017D0082A28D00C2A39D04AE020682946C8
:1027A00000F019F92068816941F0080100F048F84B
:1027B00021F00401816121688A69286902438A61E4
:1027C00037E02068294600F032F92068816941F439
:1027D000006100F035F821F4806100F031F82A69D9
:1027E00041EA0221816124E02068294600F04FF986
:1027F0002068C16941F0080100F01EF821F00401D1
:10280000C1612168CA6928690243CA6111E0206870
:10281000294600F06BF92068C16941F4006100F0BD
:102820000BF821F4806100F007F82A6941EA0221DF
:10283000C16100F00FF832BDC1612068C169704705
:10284000816120688169704704460D4694F83C0018
:1028500001287047012084F83D00002184F83C10D5
:1028600000207047012084F83C00022184F83D10CC
:10287000704710B500F057F801D1022010BD0120BB
:1028800084F83C00022284F83D20DFF8A802226888
:102890009368034093600868020018BF10282DD089
:1028A000202818BF302829D0402823D0502816D0FF
:1028B000602818D0702803D0B0F5005F07D021E061
:1028C00000F02CF82068816841F0770105E000F005
:1028D00025F82068816841F48041816012E000F0B1
:1028E00019F850210BE0CA684968206800F049F9DE
:1028F000602104E000F00EF8402100E0014620686D
:1029000000F051F914E00000F8BFFFFFFCFCFFFFEE
:102910000303FFFFCA684968206823E1CB684A685F
:102920008968206847E1044694F83C000128704714
:10293000012084F83D00002184F83C10002010BDE7
:10294000F0B57D4C05687D4B7D4E7E4FDFF8F8C1BC
:10295000A04218BFB0F1804F07D0604518BFB84201
:1029600003D0B04218BF98420DD14A6825F07005D7
:102970001543A04218BFB0F1804F17D060451CBF6F
:10298000B842B04212D098421CBF704A90420DD05B
:102990006F4EB0421CBF6F4A904207D06E4EB0429D
:1029A0001FBF6E4A90426E4EB04203D1CA6825F4F2
:1029B000407515434A6925F0800515430560A0421E
:1029C0008D68C5620A68826212BF98420969016314
:1029D00001224261F0BDF0B5026A574F5208520021
:1029E0000262066A446885690B688A6825F0730587
:1029F00026F002061D431643504BB84218BF9842BA
:102A000007D1CA6826F008061643B84226F0040625
:102A100001D0984205D14B698A6924F440741C4363
:102A2000144344608561496841630662F0BDF0B5B6
:102A3000026A414E22F010020262B042056A436807
:102A400084690A6824F4E64444EA02248A6825F08A
:102A5000200545EA0215394A18BF904208D1CF68CF
:102A600025F0800545EA0715B04225F0400501D064
:102A7000904206D14E698A6923F44063164343EAC3
:102A8000860343608461496881630562F0BDF0B5E7
:102A9000026A22F480720262056A4368C4698E6821
:102AA0000A6825F4007524F0730445EA06251443EA
:102AB000214E224AB04218BF904208D1CF6825F477
:102AC000006545EA0725B04225F4806501D09042B3
:102AD00006D14E698A6923F44053164343EA06132C
:102AE0004360C4614968C1630562F0BD70B5026AA4
:102AF000114E22F480520262B042046A4268C369F5
:102B00000D6823F4E64343EA05238D6824F400545A
:102B100044EA05341CBF094DA84204D14D6922F492
:102B2000804242EA85124260C361496801640462DE
:102B300070BD00008800FFFF00000140000401405C
:102B4000000C00400008004000040040004001402C
:102B5000004401400048014000180040001C0040B3
:102B60000020004010B5036A046A6408640004622F
:102B700023F00A03846924F0F00444EA0214846117
:102B80002EE010B5036A23F0100303628369046A20
:102B900023F4704343EA023324F0A004836144EA3F
:102BA0000114046210BD826822F07002114341F0EA
:102BB00007018160704710B5846824F47F44214385
:102BC000114341EA0321816010BD10B501F01F01DE
:102BD000036A01248C40A343036202FA01F1036AF1
:102BE0001943016210BD000010B50446042220689C
:102BF0001CE00446080004D0042907D008290AD0A4
:102C00000EE02068C26842F0020208E02068C26854
:102C100042F0040203E02068C26842F00802C26089
:102C20002068C36843F08003C360042200F05AF8B0
:102C30002068416C41F400414164816801F0070162
:102C4000062903D0016841F001010160002010BD98
:102C500030B590F83C20012A01D1022030BD01227C
:102C600080F83C20022380F83D3004686568A36842
:102C70000A6825F07005154365600268124CA2428F
:102C800018BFB2F1804F11D0104CA2421CBF104DA2
:102C9000AA420BD00F4CA2421CBF0F4DAA4205D036
:102CA0000E4CA2421CBF0E4DAA4204D1496823F02B
:102CB00080030B439360012280F83D20002180F8BF
:102CC0003C10002030BD0000000001400004004026
:102CD00000080040000C004000040140004001409A
:102CE0000018004010B501F01F01036A04248C4055
:102CF000A343036202FA01F1036A1943016210BDA2
:102D000010B5044610460A460146204600F064FE0F
:102D1000204610BD82B000200090002296484168F5
:102D200041F480414160416801F480410091009983
:102D30000092036843F080530360006800F0805005
:102D400000900098072002B0FFF751BB38B586B05D
:102D500000F0BFF821688948814233D100228848B9
:102D6000884D0092416941F480714161416901F4EB
:102D700080710091009900920221036843F00403DE
:102D80000360032200F0EFF80021039100F09EF8A9
:102D90007D48286000216960E9604FF480504FF45D
:102DA0008061686129614FF4807000224FF4804196
:102DB000E861AA60A96100F0D1F808B1FEF7FBF95B
:102DC000A563AC6307B030BD10B586B000F081F8E4
:102DD00022686F486A49B2F1804F11D100220092F7
:102DE0000B6943F001030B6100230A6902F0010241
:102DF0000092009A0093032200F01BF8012213E0D6
:102E0000644B9A4213D1002200920B6943F00203F3
:102E10000B6100230A6902F002020092009A0093FB
:102E2000C02200F006F80222059200F04FF806B02A
:102E300010BD0C6844F001040C600223096801F025
:102E400001010091009901920293002203920492E1
:102E5000704700685049884200D0704780B5002212
:102E600045480092016841F00401016000210068BA
:102E700000F00400009000981E20FFF7C5FABDE89E
:102E800002401E20FFF7DDBA10B586B000F021F831
:102E900021684148814217D100223948009202221C
:102EA000016841F002010160C021006800F00200E9
:102EB00000900098394801910292002103910491F9
:102EC0000221059100F002F806B010BD01A9FEF73D
:102ED0000BBF04461422002101A8FFF711BF38B52B
:102EE00086B0FFF7F6FF21682D48814234D10022D9
:102EF00023482C4D0092416941F020014161416914
:102F000001F02001009100990092C021036843F074
:102F100004030360022200F026F80121039103223A
:102F2000082105910492FFF7D1FF1F4828604FF058
:102F3000206169604FF4807000224FF48061E86185
:102F4000AA60EA6029616A61AA6100F007F808B125
:102F5000FEF731F96563AC6307B030BD2A626A627F
:102F6000284600F0CDBA006800F0040000900098F8
:102F7000064801910292704740380240002001400B
:102F800030380240FC040020106402400008024077
:102F9000000002400004004000080040000402401D
:102FA000001401405C0500202864024040EA0160F2
:102FB00040EA027070472DE95041DFF87043DFF8B6
:102FC00064636068DFF8608300F00C00042804D0BC
:102FD000082804D00C2815D027E0404626E000F051
:102FE00027F847BFC0F38816A8FB0601C0F388186E
:102FF000A6FB080100F042FC2168C1F30141491C15
:1030000049000FE000F014F847BFC0F38816A8FB92
:103010000601C0F38818A6FB080100F02FFC216808
:10302000C1F30271B0FBF1F000E03046BDE8508121
:103030000023226820684102206802F03F027047A6
:103040002DE9F8430646DFF8E8523078C1074FD53E
:1030500000F060F904280DD000F05CF9082802D1D6
:103060006868410206D400F055F90C280AD1686856
:10307000410207D5286881033AD57068002837D106
:10308000012043E17068B0F5803F04D1286840F426
:103090008030286011E0B0F5A02F286806D140F4F8
:1030A00080202860296841F4803105E020F48030D8
:1030B0002860296821F480212960706860B100F0DF
:1030C00019FA04462868810312D400F013FA001B91
:1030D0006528F7D3032019E100F00CFA04462868AC
:1030E000810305D500F006FA001B6528F7D3F1E748
:1030F0003078904F81071ED5A86810F00C0F0DD0C6
:1031000000F008F9082802D16868410206D500F0ED
:1031100001F90C2823D16868410220D4286881076E
:1031200002D5F0680128ABD12968306921F0F80197
:1031300041EAC001296031780A0743D5706998B324
:103140000121C7F8801E00F0D5F90446686F810799
:1031500038D400F0CFF9001B0228F7D9BAE7F0689D
:10316000A8B10121396000F0C5F90446286881073B
:1031700005D400F0BFF9001B0228F7D9AAE7286898
:10318000316920F0F80040EAC1002860D3E73860D8
:1031900000F0B0F9044629688807CCD500F0AAF9F8
:1031A000001B0228F7D995E7C7F8800E00F0A2F9B6
:1031B0000446686F810705D500F09CF9001B0228C2
:1031C000F7D987E7307841075FD5286C0024C10024
:1031D0000AD400940124296C41F080512964286CA0
:1031E00000F0805000900098DFF82481D8F80000AB
:1031F000C10513D4D8F8000040F48070C8F800006E
:1032000000F078F98146D8F80000C10506D400F036
:1032100071F9A0EB09000228F5D95BE7B068012835
:1032200005D00528286F06D140F004002867286FD4
:1032300040F0010005E0400840002867286F20F0BA
:103240000400286741F28938B06860B100F052F993
:103250008146286F810713D400F04CF9A0EB0900D8
:103260004045F6D336E700F045F98146286F8107DF
:1032700006D500F03FF9A0EB09004045F6D329E759
:103280001CB1286C20F080502864B06900283CD024
:10329000A96801F00C0108293FF4F2AE022828D1F8
:1032A00000F03CF804462868810105D500F022F9B9
:1032B000001B0228F7D90DE7F069316A726A0843EA
:1032C000B16A490840EA8210491E40EA0140F16AA9
:1032D000326BFFF76BFE6860012000F020F80446B7
:1032E0002868810111D400F005F9001B0228F7D9E4
:1032F000F0E600F013F804462868810105D500F0D7
:10330000F9F8001B0228F7D9E4E60020BDE8F283B3
:1033100000700040A86800F00C007047002038667C
:1033200000F0E8B80024F40000127A0004380240EB
:103330000038024000004742F8B500F027F80121AC
:1033400000F01EF8316000F0D5F807462868C10388
:1033500006D400F0CFF8C01BA042F7D30320F2BD83
:103360000120706000F0C6F806462868810305D485
:1033700000F0C0F8801BA042F7D3EFE70020F2BDB9
:10338000006800F080500090009870470020009086
:1033900040F2E9340448054E0168024D41F0805185
:1033A00001607047047000404038024040000E4207
:1033B000F8B504000E4651D0484D00F076F802D220
:1033C00000F071F84AD12068810712D5400703D573
:1033D000A96841F4E051A9602078010703D5A868E5
:1033E00040F46040A860A968A06821F0F0010143A2
:1033F000A9602178C80728D56068012802D129680A
:103400008A0305E0022818BF032803D129688A012E
:1034100003D423E029688A0720D5A968890840EAEF
:103420008100A86000F066F80746A868616800F0AF
:103430000C00B0EB810F08D000F05CF8C01B41F22B
:1034400089318842F1D30320F2BDD5F8000400F0A1
:103450000F00864204D200F026F801D00120F2BD10
:103460002078410705D5AA68E06822F4E0520243BB
:10347000AA602178080706D5A968206921F460416F
:1034800041EAC001A960FFF796FDAA681449154BEF
:10349000C2F30312895CC84018601348006800F04A
:1034A00073FA0020F2BD85F80064D5F8000400F03E
:1034B0000F00B04270470B480C4A006813680C4973
:1034C000C3F3822206E00748084A006813680849E7
:1034D000C3F34232895CC8407047000000380240A4
:1034E000DC3A0008F8040020F40400200838024008
:1034F000CC3B000801484068704700BFEC04002046
:1035000038B50446FFF7F6FF05460CB9012032BD79
:10351000002084F83400022184F835102068026805
:1035200052085200026022681068C1070BD5FFF7ED
:10353000E1FF401B0628F6D320206065032184F8B4
:103540003510032032BD1368DFF89802616803402C
:10355000A0680B43E168034320690B43616903439F
:10356000A0690B43E1690343206A0B43616A03438B
:10357000042903D1E16A206B0B43034313602368E2
:103580005A69606AD208042840EAC2020AD1A56AD0
:10359000E16A2A4331B1A06990B9002D18BF022D0C
:1035A00020D017D35A61204600F04CF9E16D3F223C
:1035B0008A40826000206065012184F8351032BDA8
:1035C000B0F5005F0AD1032DECD8DFE805F00D0B54
:1035D0000D03E7E7B1F1C07FE4D105E0022D03D987
:1035E000ED1EDFD1C801DDD540216165012084F8E1
:1035F000350032BDF8B50446002594F83400A66DB8
:10360000012801D10220F2BD012084F8340094F891
:103610003570012F1CD1022084F8350065652046E5
:1036200000F0FEF8E06D3F278740B7602068016832
:1036300041F016010160206C20B12068016841F062
:10364000080101602068016841F00101016002E0A9
:1036500084F8345002252846F2BD206801684908E4
:10366000490001607047F8B5044600205E490090AB
:103670004FF41650A66D0A683768B2FBF0F5E06D9E
:10368000082100F0B4F80ED02068026853070AD56C
:10369000026822F004020260E06D8140B160616D59
:1036A00041F001016165E06D27FA00F1CA070BD511
:1036B00021684A69110607D5012202FA00F0B060BC
:1036C000606D40F002006065042100F08FF808D0C2
:1036D00021680A68930704D5B060606D40F004006B
:1036E0006065102100F082F81BD021680A6813077A
:1036F00017D5B060206801684A0307D50068010348
:103700000BD5A16C69B1204688470AE00168CA055B
:1037100003D4016821F008010160216C09B1204641
:103720008847E06D202100F062F83ED021680A68E9
:10373000D3063AD5B060206894F8351005291CD11D
:10374000026822F01602026000F062F804BFA06C6A
:10375000002801D000F04FF83F22E06D8240B260B7
:10376000002184F83410012084F83500216D0029EF
:1037700036D02046BDE8F440084701684A0307D523
:10378000006801030DD4616C79B1204688470CE0D4
:103790000168CA0505D4016821F01001016000F03C
:1037A00030F8E16B09B120468847606DC0B1606DAB
:1037B000C1070FD5052084F83500FFF74EFF0098AC
:1037C000401C8542009003D320680168CA07F6D4E4
:1037D00000F017F8E16C19B12046BDE8F440084745
:1037E000F1BD00003F8010F0F8040020E06D01FA08
:1037F00000F0074270472068016821F0080101606D
:103800007047002084F83400012184F83510704797
:103810002068416921F080014161206C00287047D7
:1038200030B50468256825F48025256063608068CC
:10383000402802D1A260E16030BDA160E26030BDED
:103840000000000030B501461823086807A400F006
:10385000FF02103AB2FBF3F2800AA55CCD6580024C
:10386000042A28BF001D886530BD00000006101620
:10387000000610167047704770470000D3BBD9B1DF
:10388000B2F5803F5BD2022A1ED98C46B1FBF2F121
:1038900002FB11C31B0443EA1043B3FBF2FC02FB1F
:1038A0001C3380B240EA0343B3FBF2F002FB103258
:1038B00040EA0C4000237047022A05D98446B0FB39
:1038C000F2F002FB10C270474AB105D100F00102CC
:1038D00049085FEA3000704700220023704700F07B
:1038E000AFB80B000200002100207047F7D3002280
:1038F00000237047904271EB030CF2D370B5B1FA1C
:1039000081F4B3FA83F52C1BA340C4F1200532FAED
:1039100005F63343A2405FF00046E64002E05B0854
:103920005FEA3202841A71EB030524BF2046294660
:103930007641F4D302000B003000002170BD70B559
:10394000B1FA81F4B2FA82F5C4F120046419B4F139
:103950002006DAD3B2405FF00044F440002502E0D4
:1039600052085FEA3303C61A71EB020E24BF3046D9
:10397000714664416D41F3D302000B002000290021
:1039800070BD70477047704738B50D4D0D4B2A78A4
:1039900004464FF47A711868B1FBF2F2B0FBF2F012
:1039A000FEF75AFD50B9102C08D2002221464FF0E4
:1039B000FF30FEF729FDAC60002032BD012032BD92
:1039C000EC040020F80400207047704770477047EF
:1039D000704770477047000062F30F2262F31F4286
:1039E000401810F0030308D0C91A1FD3DB0748BFE3
:1039F00000F8012D28BF20F8022D130030B4144622
:103A00001546103928BF20E93C00FAD8490728BFDD
:103A100020E90C0048BF40F8042D890028BF20F899
:103A2000022D48BF00F8012D30BC7047C91818BFDF
:103A300000F8012DCB0728BF00F8012D70470000CA
:103A4000704730B4002512E050F8042BD30744BF70
:103A50004A44521E091F042942F8045BFAD2134655
:103A60008C0744BF15809B1CC90748BF1D7050F8C8
:103A7000041B0029E8D130BC704700007047FEE706
:103A8000FEE7FEE7FEE770477047704700F010B8AA
:103A90000448FEF7CFBD0448FFF7E5BD0348FFF734
:103AA000E2BD000020020020FC0400205C05002094
:103AB0000248416802788A1842607047EC0400208E
:103AC0000548D0F8801041F47001C0F880104FF024
:103AD000006202607047000008ED00E00000000096
:103AE00000000000010203040607080910B5074999
:103AF00079441831064C7C44163404E00A68081DE9
:103B0000114488470146A142F8D110BD2C000000A5
:103B1000480000004EF68851CEF20001086840F4DB
:103B200070000860BFF34F8FBFF36F8F4FF00070CE
:103B3000E1EE100A704700000BFFFFFFC00000001D
:103B4000FC0400200000000073DAFFFFD401000035
:103B5000D20000000000002000F00DF8002801D085
:103B6000FFF7C4FFAFF300800020AFF30080FDF744
:103B700077F800F002F80120704700F001B800006B
:103B80000746384600F002F8FBE7000080B5AFF3C7
:103B90000080024A11001820ABBEFBE7260002009D
:103BA0000548014603B4684680F30988AFF30080F6
:103BB000FFF7B0FFFFF7D0FFA5EDF5FE0148804706
:103BC00001480047C13A0008A13B0008000000007E
:103BD00001020304FFF7FEBFFFF7FEBFFFF7FEBFC2
:103BE000FFF7FEBFFFF7FEBFFFF7FEBFFFF7FEBF09
:103BF000FFF7FEBFFFF7FEBFFFF7FEBFFFF7FEBFF9
:103C0000FFF7FEBFFFF7FEBFFFF7FEBFFFF7FEBFE8
:103C1000FFF7FEBFFFF7FEBFFFF7FEBFFFF7FEBFD8
:103C2000FFF7FEBFFFF7FEBFFFF7FEBFFFF7FEBFC8
:103C3000FFF7FEBFFFF7FEBFFFF7FEBFFFF7FEBFB8
:103C4000FFF7FEBFFFF7FEBFFFF7FEBFFFF7FEBFA8
:103C5000FFF7FEBFFFF7FEBFFFF7FEBFFFF7FEBF98
:103C6000FFF7FEBFFFF7FEBFFFF7FEBFFFF7FEBF88
:103C7000FFF7FEBFFFF7FEBFFFF7FEBFFFF7FEBF78
:103C8000FFF7FEBFFFF7FEBFFFF7FEBFFFF7FEBF68
:103C9000FFF7FEBFFFF7FEBFFFF7FEBFFFF7FEBF58
:103CA000FFF7FEBFFFF7FEBFFFF7FEBFFFF7FEBF48
:103CB000FFF7FEBFFFF7FEBFFFF7FEBFFFF7FEBF38
:103CC000FFF7FEBFFFF7FEBFFFF7FEBFFFF7FEBF28
:103CD000FFF7FEBFFFF7FEBFFFF7FEBFFFF7FEBF18
:103CE000FFF7FEBFFFF7FEBFFFF7FEBFFFF7FEBF08
:103CF000FFF7FEBFFFF7FEBFFFF7FEBFFFF7FEBFF8
:103D0000FFF7FEBFFFF7FEBFFFF7FEBFFFF7FEBFE7
:103D1000FFF7FEBFFFF7FEBFFFF7FEBFFFF7FEBFD7
:103D2000D000FB330AB32340A4703D0AD7A3D03F91
:103D3000E200012440F80007B1E1E995B20CE33F4D
:103D4000FB3302D35440BA00011E40FA6601D63F4D
:103D5000E200012440F80007863DEDF0D764DF3F24
:103D6000FB6602A64040810081008100ED0003FF58
:103D70000000018100810081008100A4000001F9A0
:093D8000000010FC000224F40014
:0400000508003BA113
:00000001FF
